{
  "contractName": "BancorConverterFactory",
  "abi": [
    {
      "inputs": [],
      "payable": false,
      "stateMutability": "nonpayable",
      "type": "constructor"
    },
    {
      "anonymous": false,
      "inputs": [
        {
          "indexed": true,
          "name": "_converter",
          "type": "address"
        },
        {
          "indexed": true,
          "name": "_owner",
          "type": "address"
        }
      ],
      "name": "NewConverter",
      "type": "event"
    },
    {
      "constant": false,
      "inputs": [
        {
          "name": "_token",
          "type": "address"
        },
        {
          "name": "_registry",
          "type": "address"
        },
        {
          "name": "_maxConversionFee",
          "type": "uint32"
        },
        {
          "name": "_connectorToken",
          "type": "address"
        },
        {
          "name": "_connectorWeight",
          "type": "uint32"
        }
      ],
      "name": "createConverter",
      "outputs": [
        {
          "name": "converterAddress",
          "type": "address"
        }
      ],
      "payable": false,
      "stateMutability": "nonpayable",
      "type": "function"
    }
  ],
  "bytecode": "0x608060405234801561001057600080fd5b50618625806100206000396000f300608060405260043610610041576000357c0100000000000000000000000000000000000000000000000000000000900463ffffffff168063034efaeb14610046575b600080fd5b34801561005257600080fd5b506100e7600480360381019080803573ffffffffffffffffffffffffffffffffffffffff169060200190929190803573ffffffffffffffffffffffffffffffffffffffff169060200190929190803563ffffffff169060200190929190803573ffffffffffffffffffffffffffffffffffffffff169060200190929190803563ffffffff169060200190929190505050610129565b604051808273ffffffffffffffffffffffffffffffffffffffff1673ffffffffffffffffffffffffffffffffffffffff16815260200191505060405180910390f35b6000806000878787878761013b6103ed565b808673ffffffffffffffffffffffffffffffffffffffff1673ffffffffffffffffffffffffffffffffffffffff1681526020018573ffffffffffffffffffffffffffffffffffffffff1673ffffffffffffffffffffffffffffffffffffffff1681526020018463ffffffff1663ffffffff1681526020018373ffffffffffffffffffffffffffffffffffffffff1673ffffffffffffffffffffffffffffffffffffffff1681526020018263ffffffff1663ffffffff16815260200195505050505050604051809103906000f080158015610219573d6000803e3d6000fd5b5091508173ffffffffffffffffffffffffffffffffffffffff1663f2fde38b336040518263ffffffff167c0100000000000000000000000000000000000000000000000000000000028152600401808273ffffffffffffffffffffffffffffffffffffffff1673ffffffffffffffffffffffffffffffffffffffff168152602001915050600060405180830381600087803b1580156102b757600080fd5b505af11580156102cb573d6000803e3d6000fd5b505050508173ffffffffffffffffffffffffffffffffffffffff1663e4edf852336040518263ffffffff167c0100000000000000000000000000000000000000000000000000000000028152600401808273ffffffffffffffffffffffffffffffffffffffff1673ffffffffffffffffffffffffffffffffffffffff168152602001915050600060405180830381600087803b15801561036a57600080fd5b505af115801561037e573d6000803e3d6000fd5b505050508190503373ffffffffffffffffffffffffffffffffffffffff168173ffffffffffffffffffffffffffffffffffffffff167fb54eb8f70476910bea510b4ca1ece1fdb11eeb345b0d46221dd40ba86e64953360405160405180910390a3809250505095945050505050565b6040516181fb80620003ff83390190560060806040527f302e3131000000000000000000000000000000000000000000000000000000006005906000191690556040805190810160405280600681526020017f62616e636f720000000000000000000000000000000000000000000000000000815250600690805190602001906200007b92919062000b21565b506001600760006101000a81548160ff0219169083151502179055506000600760016101000a81548160ff0219169083151502179055506000600c60006101000a81548163ffffffff021916908363ffffffff1602179055506000600c60046101000a81548163ffffffff021916908363ffffffff1602179055506000600c60086101000a81548163ffffffff021916908363ffffffff1602179055506001600c806101000a81548160ff0219169083151502179055503480156200013f57600080fd5b5060405160a080620081fb8339810180604052810190808051906020019092919080519060200190929190805190602001909291908051906020019092919080519060200190929190505050600085336000806101000a81548173ffffffffffffffffffffffffffffffffffffffff021916908373ffffffffffffffffffffffffffffffffffffffff16021790555080600073ffffffffffffffffffffffffffffffffffffffff168173ffffffffffffffffffffffffffffffffffffffff16141515156200020c57600080fd5b81600260006101000a81548173ffffffffffffffffffffffffffffffffffffffff021916908373ffffffffffffffffffffffffffffffffffffffff160217905550505033600360006101000a81548173ffffffffffffffffffffffffffffffffffffffff021916908373ffffffffffffffffffffffffffffffffffffffff16021790555084600073ffffffffffffffffffffffffffffffffffffffff168173ffffffffffffffffffffffffffffffffffffffff1614151515620002ce57600080fd5b8460008163ffffffff1610158015620002fa5750620f424067ffffffffffffffff168163ffffffff1611155b15156200030657600080fd5b86600860006101000a81548173ffffffffffffffffffffffffffffffffffffffff021916908373ffffffffffffffffffffffffffffffffffffffff16021790555086600760026101000a81548173ffffffffffffffffffffffffffffffffffffffff021916908373ffffffffffffffffffffffffffffffffffffffff160217905550600860009054906101000a900473ffffffffffffffffffffffffffffffffffffffff1673ffffffffffffffffffffffffffffffffffffffff1663bb34534c7f436f6e74726163744665617475726573000000000000000000000000000000006040518263ffffffff167c0100000000000000000000000000000000000000000000000000000000028152600401808260001916600019168152602001915050602060405180830381600087803b1580156200044257600080fd5b505af115801562000457573d6000803e3d6000fd5b505050506040513d60208110156200046e57600080fd5b81019080805190602001909291905050509250600073ffffffffffffffffffffffffffffffffffffffff168373ffffffffffffffffffffffffffffffffffffffff161415156200054f578273ffffffffffffffffffffffffffffffffffffffff16632c7077c06001806040518363ffffffff167c0100000000000000000000000000000000000000000000000000000000028152600401808381526020018215151515815260200192505050600060405180830381600087803b1580156200053557600080fd5b505af11580156200054a573d6000803e3d6000fd5b505050505b85600c60046101000a81548163ffffffff021916908363ffffffff160217905550600073ffffffffffffffffffffffffffffffffffffffff168573ffffffffffffffffffffffffffffffffffffffff16141515620005c557620005c485856000620005d3640100000000026401000000009004565b5b505050505050505062000bd0565b6000809054906101000a900473ffffffffffffffffffffffffffffffffffffffff1673ffffffffffffffffffffffffffffffffffffffff163373ffffffffffffffffffffffffffffffffffffffff161415156200062f57600080fd5b3073ffffffffffffffffffffffffffffffffffffffff16600260009054906101000a900473ffffffffffffffffffffffffffffffffffffffff1673ffffffffffffffffffffffffffffffffffffffff16638da5cb5b6040518163ffffffff167c0100000000000000000000000000000000000000000000000000000000028152600401602060405180830381600087803b158015620006cd57600080fd5b505af1158015620006e2573d6000803e3d6000fd5b505050506040513d6020811015620006f957600080fd5b810190808051906020019092919050505073ffffffffffffffffffffffffffffffffffffffff16141515156200072e57600080fd5b82600073ffffffffffffffffffffffffffffffffffffffff168173ffffffffffffffffffffffffffffffffffffffff16141515156200076c57600080fd5b833073ffffffffffffffffffffffffffffffffffffffff168173ffffffffffffffffffffffffffffffffffffffff1614151515620007a957600080fd5b8360008163ffffffff16118015620007d05750620f424063ffffffff168163ffffffff1611155b1515620007dc57600080fd5b600260009054906101000a900473ffffffffffffffffffffffffffffffffffffffff1673ffffffffffffffffffffffffffffffffffffffff168673ffffffffffffffffffffffffffffffffffffffff1614158015620008885750600b60008773ffffffffffffffffffffffffffffffffffffffff1673ffffffffffffffffffffffffffffffffffffffff16815260200190815260200160002060010160069054906101000a900460ff16155b8015620008b85750620f424063ffffffff1685600c60009054906101000a900463ffffffff160163ffffffff1611155b1515620008c457600080fd5b6000600b60008873ffffffffffffffffffffffffffffffffffffffff1673ffffffffffffffffffffffffffffffffffffffff1681526020019081526020016000206000018190555084600b60008873ffffffffffffffffffffffffffffffffffffffff1673ffffffffffffffffffffffffffffffffffffffff16815260200190815260200160002060010160006101000a81548163ffffffff021916908363ffffffff16021790555083600b60008873ffffffffffffffffffffffffffffffffffffffff1673ffffffffffffffffffffffffffffffffffffffff16815260200190815260200160002060010160046101000a81548160ff0219169083151502179055506001600b60008873ffffffffffffffffffffffffffffffffffffffff1673ffffffffffffffffffffffffffffffffffffffff16815260200190815260200160002060010160056101000a81548160ff0219169083151502179055506001600b60008873ffffffffffffffffffffffffffffffffffffffff1673ffffffffffffffffffffffffffffffffffffffff16815260200190815260200160002060010160066101000a81548160ff021916908315150217905550600a8690806001815401808255809150509060018203906000526020600020016000909192909190916101000a81548173ffffffffffffffffffffffffffffffffffffffff021916908373ffffffffffffffffffffffffffffffffffffffff1602179055505084600c60008282829054906101000a900463ffffffff160192506101000a81548163ffffffff021916908363ffffffff160217905550505050505050565b828054600181600116156101000203166002900490600052602060002090601f016020900481019282601f1062000b6457805160ff191683800117855562000b95565b8280016001018555821562000b95579182015b8281111562000b9457825182559160200191906001019062000b77565b5b50905062000ba4919062000ba8565b5090565b62000bcd91905b8082111562000bc957600081600090555060010162000baf565b5090565b90565b61761b8062000be06000396000f3006080604052600436106102eb576000357c0100000000000000000000000000000000000000000000000000000000900463ffffffff1680630c87355e146102f05780630ca78923146103235780630e53aae91461038c57806319b64015146104175780631d000b61146104845780631e1401f8146104b757806320d7d3671461053f57806321e6b53d1461056e57806322742564146105b1578063228d28201461066557806325f9bfef146106945780632a2e2f0c146106c757806338a5e016146107525780633aa0145a146107695780633e8ff43f146107b75780633f4d2fc214610847578063415f1240146108a657806341a5b33d146108d35780634290602914610940578063481c6a751461099757806349d10b64146109ee5780634af80f0e14610a05578063514385be14610a4857806354fd4d5014610a97578063579cd3ca14610aca5780635a46f06c14610b015780635e35359e14610b345780635e5144eb14610ba157806361cd756e14610c2c57806362614ae614610c835780636d7bd3fc14610cb657806371f52bf314610ce957806372b44b2c14610d1c57806375892cf114610d8457806379ba509714610e0f5780637b10399914610e2657806383315b6e14610e7d57806385d5e63114610eb05780638b34839f14610edf5780638da5cb5b14610f0e5780638e3047e014610f655780639232494e14610fed5780639249993a1461102057806392d1abb71461105357806394c275ad1461107e578063a2c4c336146110b5578063ad374f5b1461111d578063b4a176d31461114c578063bf75455814611163578063c45d3d9214611192578063c4a8598e146111e9578063c8c2fe6c1461121c578063ca1d209d14611233578063d4ee1d9014611260578063d55ec697146112b7578063d8959512146112ce578063e4edf85214611325578063ecbca55d14611368578063f0843ba91461139b578063f2fde38b1461141c578063fa1c594e1461145f578063fc0c546a1461148e578063fe417fa5146114e5575b600080fd5b3480156102fc57600080fd5b50610305611532565b60405180826000191660001916815260200191505060405180910390f35b34801561032f57600080fd5b5061038a600480360381019080803573ffffffffffffffffffffffffffffffffffffffff169060200190929190803563ffffffff16906020019092919080351515906020019092919080359060200190929190505050611556565b005b34801561039857600080fd5b506103cd600480360381019080803573ffffffffffffffffffffffffffffffffffffffff169060200190929190505050611765565b604051808681526020018563ffffffff1663ffffffff1681526020018415151515815260200183151515158152602001821515151581526020019550505050505060405180910390f35b34801561042357600080fd5b50610442600480360381019080803590602001909291905050506117d2565b604051808273ffffffffffffffffffffffffffffffffffffffff1673ffffffffffffffffffffffffffffffffffffffff16815260200191505060405180910390f35b34801561049057600080fd5b50610499611810565b60405180826000191660001916815260200191505060405180910390f35b3480156104c357600080fd5b50610522600480360381019080803573ffffffffffffffffffffffffffffffffffffffff169060200190929190803573ffffffffffffffffffffffffffffffffffffffff16906020019092919080359060200190929190505050611834565b604051808381526020018281526020019250505060405180910390f35b34801561054b57600080fd5b5061055461195c565b604051808215151515815260200191505060405180910390f35b34801561057a57600080fd5b506105af600480360381019080803573ffffffffffffffffffffffffffffffffffffffff16906020019092919050505061196f565b005b61064f60048036038101908080359060200190820180359060200190808060200260200160405190810160405280939291908181526020018383602002808284378201915050505050509192919290803590602001909291908035906020019092919080359060200190929190803560ff16906020019092919080356000191690602001909291908035600019169060200190929190505050611b2a565b6040518082815260200191505060405180910390f35b34801561067157600080fd5b50610692600480360381019080803515159060200190929190505050612128565b005b3480156106a057600080fd5b506106a961225c565b60405180826000191660001916815260200191505060405180910390f35b3480156106d357600080fd5b5061073c600480360381019080803573ffffffffffffffffffffffffffffffffffffffff169060200190929190803573ffffffffffffffffffffffffffffffffffffffff1690602001909291908035906020019092919080359060200190929190505050612280565b6040518082815260200191505060405180910390f35b34801561075e57600080fd5b50610767612abc565b005b34801561077557600080fd5b506107a160048036038101908080359060200190929190803560ff169060200190929190505050612bb7565b6040518082815260200191505060405180910390f35b3480156107c357600080fd5b506107cc612c28565b6040518080602001828103825283818151815260200191508051906020019080838360005b8381101561080c5780820151818401526020810190506107f1565b50505050905090810190601f1680156108395780820380516001836020036101000a031916815260200191505b509250505060405180910390f35b34801561085357600080fd5b506108a4600480360381019080803573ffffffffffffffffffffffffffffffffffffffff169060200190929190803563ffffffff169060200190929190803515159060200190929190505050612cc6565b005b3480156108b257600080fd5b506108d160048036038101908080359060200190929190505050613208565b005b3480156108df57600080fd5b5061093e600480360381019080803573ffffffffffffffffffffffffffffffffffffffff169060200190929190803573ffffffffffffffffffffffffffffffffffffffff16906020019092919080359060200190929190505050613645565b005b34801561094c57600080fd5b506109556137b6565b604051808273ffffffffffffffffffffffffffffffffffffffff1673ffffffffffffffffffffffffffffffffffffffff16815260200191505060405180910390f35b3480156109a357600080fd5b506109ac6137dc565b604051808273ffffffffffffffffffffffffffffffffffffffff1673ffffffffffffffffffffffffffffffffffffffff16815260200191505060405180910390f35b3480156109fa57600080fd5b50610a03613802565b005b348015610a1157600080fd5b50610a46600480360381019080803573ffffffffffffffffffffffffffffffffffffffff169060200190929190505050613aa9565b005b348015610a5457600080fd5b50610a95600480360381019080803573ffffffffffffffffffffffffffffffffffffffff169060200190929190803515159060200190929190505050613b85565b005b348015610aa357600080fd5b50610aac613c9c565b60405180826000191660001916815260200191505060405180910390f35b348015610ad657600080fd5b50610adf613ca2565b604051808263ffffffff1663ffffffff16815260200191505060405180910390f35b348015610b0d57600080fd5b50610b16613cb8565b60405180826000191660001916815260200191505060405180910390f35b348015610b4057600080fd5b50610b9f600480360381019080803573ffffffffffffffffffffffffffffffffffffffff169060200190929190803573ffffffffffffffffffffffffffffffffffffffff16906020019092919080359060200190929190505050613cdc565b005b348015610bad57600080fd5b50610c16600480360381019080803573ffffffffffffffffffffffffffffffffffffffff169060200190929190803573ffffffffffffffffffffffffffffffffffffffff1690602001909291908035906020019092919080359060200190929190505050613f8f565b6040518082815260200191505060405180910390f35b348015610c3857600080fd5b50610c41613fa7565b604051808273ffffffffffffffffffffffffffffffffffffffff1673ffffffffffffffffffffffffffffffffffffffff16815260200191505060405180910390f35b348015610c8f57600080fd5b50610c98613fcd565b60405180826000191660001916815260200191505060405180910390f35b348015610cc257600080fd5b50610ccb613ff1565b60405180826000191660001916815260200191505060405180910390f35b348015610cf557600080fd5b50610cfe614015565b604051808261ffff1661ffff16815260200191505060405180910390f35b348015610d2857600080fd5b50610d67600480360381019080803573ffffffffffffffffffffffffffffffffffffffff16906020019092919080359060200190929190505050614022565b604051808381526020018281526020019250505060405180910390f35b348015610d9057600080fd5b50610df9600480360381019080803573ffffffffffffffffffffffffffffffffffffffff169060200190929190803573ffffffffffffffffffffffffffffffffffffffff1690602001909291908035906020019092919080359060200190929190505050614490565b6040518082815260200191505060405180910390f35b348015610e1b57600080fd5b50610e24614600565b005b348015610e3257600080fd5b50610e3b61479f565b604051808273ffffffffffffffffffffffffffffffffffffffff1673ffffffffffffffffffffffffffffffffffffffff16815260200191505060405180910390f35b348015610e8957600080fd5b50610e926147c5565b60405180826000191660001916815260200191505060405180910390f35b348015610ebc57600080fd5b50610edd6004803603810190808035151590602001909291905050506147e9565b005b348015610eeb57600080fd5b50610ef46148f4565b604051808215151515815260200191505060405180910390f35b348015610f1a57600080fd5b50610f23614907565b604051808273ffffffffffffffffffffffffffffffffffffffff1673ffffffffffffffffffffffffffffffffffffffff16815260200191505060405180910390f35b348015610f7157600080fd5b50610fd0600480360381019080803573ffffffffffffffffffffffffffffffffffffffff169060200190929190803573ffffffffffffffffffffffffffffffffffffffff1690602001909291908035906020019092919050505061492c565b604051808381526020018281526020019250505060405180910390f35b348015610ff957600080fd5b50611002614dbe565b60405180826000191660001916815260200191505060405180910390f35b34801561102c57600080fd5b50611035614de2565b60405180826000191660001916815260200191505060405180910390f35b34801561105f57600080fd5b50611068614e06565b6040518082815260200191505060405180910390f35b34801561108a57600080fd5b50611093614e0b565b604051808263ffffffff1663ffffffff16815260200191505060405180910390f35b3480156110c157600080fd5b50611100600480360381019080803573ffffffffffffffffffffffffffffffffffffffff16906020019092919080359060200190929190505050614e21565b604051808381526020018281526020019250505060405180910390f35b34801561112957600080fd5b5061114a6004803603810190808035151590602001909291905050506152ac565b005b34801561115857600080fd5b50611161615324565b005b34801561116f57600080fd5b50611178615457565b604051808215151515815260200191505060405180910390f35b34801561119e57600080fd5b506111a7615469565b604051808273ffffffffffffffffffffffffffffffffffffffff1673ffffffffffffffffffffffffffffffffffffffff16815260200191505060405180910390f35b3480156111f557600080fd5b506111fe61548f565b60405180826000191660001916815260200191505060405180910390f35b34801561122857600080fd5b506112316154b3565b005b34801561123f57600080fd5b5061125e60048036038101908080359060200190929190505050615654565b005b34801561126c57600080fd5b50611275615adc565b604051808273ffffffffffffffffffffffffffffffffffffffff1673ffffffffffffffffffffffffffffffffffffffff16815260200191505060405180910390f35b3480156112c357600080fd5b506112cc615b02565b005b3480156112da57600080fd5b5061130f600480360381019080803573ffffffffffffffffffffffffffffffffffffffff169060200190929190505050615cfa565b6040518082815260200191505060405180910390f35b34801561133157600080fd5b50611366600480360381019080803573ffffffffffffffffffffffffffffffffffffffff169060200190929190505050615e9a565b005b34801561137457600080fd5b50611399600480360381019080803563ffffffff169060200190929190505050615fee565b005b611406600480360381019080803590602001908201803590602001908080602002602001604051908101604052809392919081815260200183836020028082843782019150505050505091929192908035906020019092919080359060200190929190505050616170565b6040518082815260200191505060405180910390f35b34801561142857600080fd5b5061145d600480360381019080803573ffffffffffffffffffffffffffffffffffffffff1690602001909291905050506161cc565b005b34801561146b57600080fd5b5061148c6004803603810190808035151590602001909291905050506162c7565b005b34801561149a57600080fd5b506114a3616398565b604051808273ffffffffffffffffffffffffffffffffffffffff1673ffffffffffffffffffffffffffffffffffffffff16815260200191505060405180910390f35b3480156114f157600080fd5b50611530600480360381019080803573ffffffffffffffffffffffffffffffffffffffff169060200190929190803590602001909291905050506163be565b005b7f42616e636f72436f6e766572746572557067726164657200000000000000000081565b60008060009054906101000a900473ffffffffffffffffffffffffffffffffffffffff1673ffffffffffffffffffffffffffffffffffffffff163373ffffffffffffffffffffffffffffffffffffffff161415156115b357600080fd5b84600b60008273ffffffffffffffffffffffffffffffffffffffff1673ffffffffffffffffffffffffffffffffffffffff16815260200190815260200160002060010160069054906101000a900460ff16151561160f57600080fd5b8460008163ffffffff161180156116355750620f424063ffffffff168163ffffffff1611155b151561164057600080fd5b600b60008873ffffffffffffffffffffffffffffffffffffffff1673ffffffffffffffffffffffffffffffffffffffff1681526020019081526020016000209250620f424063ffffffff16868460010160009054906101000a900463ffffffff16600c60009054906101000a900463ffffffff16030163ffffffff16111515156116c957600080fd5b858360010160009054906101000a900463ffffffff16600c60009054906101000a900463ffffffff160301600c60006101000a81548163ffffffff021916908363ffffffff160217905550858360010160006101000a81548163ffffffff021916908363ffffffff160217905550848360010160046101000a81548160ff02191690831515021790555083836000018190555050505050505050565b600b6020528060005260406000206000915090508060000154908060010160009054906101000a900463ffffffff16908060010160049054906101000a900460ff16908060010160059054906101000a900460ff16908060010160069054906101000a900460ff16905085565b600a818154811015156117e157fe5b906000526020600020016000915054906101000a900473ffffffffffffffffffffffffffffffffffffffff1681565b7f424e54546f6b656e00000000000000000000000000000000000000000000000081565b6000808373ffffffffffffffffffffffffffffffffffffffff168573ffffffffffffffffffffffffffffffffffffffff161415151561187257600080fd5b600260009054906101000a900473ffffffffffffffffffffffffffffffffffffffff1673ffffffffffffffffffffffffffffffffffffffff168473ffffffffffffffffffffffffffffffffffffffff1614156118db576118d28584614e21565b91509150611954565b600260009054906101000a900473ffffffffffffffffffffffffffffffffffffffff1673ffffffffffffffffffffffffffffffffffffffff168573ffffffffffffffffffffffffffffffffffffffff1614156119445761193b8484614022565b91509150611954565b61194f85858561492c565b915091505b935093915050565b600760009054906101000a900460ff1681565b6000809054906101000a900473ffffffffffffffffffffffffffffffffffffffff1673ffffffffffffffffffffffffffffffffffffffff163373ffffffffffffffffffffffffffffffffffffffff161415156119ca57600080fd5b6000600860009054906101000a900473ffffffffffffffffffffffffffffffffffffffff1673ffffffffffffffffffffffffffffffffffffffff1663bb34534c7f42616e636f72436f6e76657274657255706772616465720000000000000000006040518263ffffffff167c0100000000000000000000000000000000000000000000000000000000028152600401808260001916600019168152602001915050602060405180830381600087803b158015611a8557600080fd5b505af1158015611a99573d6000803e3d6000fd5b505050506040513d6020811015611aaf57600080fd5b810190808051906020019092919050505090508073ffffffffffffffffffffffffffffffffffffffff166000809054906101000a900473ffffffffffffffffffffffffffffffffffffffff1673ffffffffffffffffffffffffffffffffffffffff16141515611b1d57600080fd5b611b26826166ca565b5050565b60008060008960028151118015611b4357506015815111155b8015611b5c5750600160028251811515611b5957fe5b06145b1515611b6757600080fd5b8a6000815181101515611b7657fe5b906020019060200201519250600860009054906101000a900473ffffffffffffffffffffffffffffffffffffffff1673ffffffffffffffffffffffffffffffffffffffff1663bb34534c7f42616e636f724e6574776f726b000000000000000000000000000000000000006040518263ffffffff167c0100000000000000000000000000000000000000000000000000000000028152600401808260001916600019168152602001915050602060405180830381600087803b158015611c3b57600080fd5b505af1158015611c4f573d6000803e3d6000fd5b505050506040513d6020811015611c6557600080fd5b810190808051906020019092919050505091506000341415611fb257600260009054906101000a900473ffffffffffffffffffffffffffffffffffffffff1673ffffffffffffffffffffffffffffffffffffffff168373ffffffffffffffffffffffffffffffffffffffff161415611e9657600260009054906101000a900473ffffffffffffffffffffffffffffffffffffffff1673ffffffffffffffffffffffffffffffffffffffff1663a24835d1338c6040518363ffffffff167c0100000000000000000000000000000000000000000000000000000000028152600401808373ffffffffffffffffffffffffffffffffffffffff1673ffffffffffffffffffffffffffffffffffffffff16815260200182815260200192505050600060405180830381600087803b158015611d9c57600080fd5b505af1158015611db0573d6000803e3d6000fd5b50505050600260009054906101000a900473ffffffffffffffffffffffffffffffffffffffff1673ffffffffffffffffffffffffffffffffffffffff1663867904b4838c6040518363ffffffff167c0100000000000000000000000000000000000000000000000000000000028152600401808373ffffffffffffffffffffffffffffffffffffffff1673ffffffffffffffffffffffffffffffffffffffff16815260200182815260200192505050600060405180830381600087803b158015611e7957600080fd5b505af1158015611e8d573d6000803e3d6000fd5b50505050611fb1565b8273ffffffffffffffffffffffffffffffffffffffff166323b872dd33848d6040518463ffffffff167c0100000000000000000000000000000000000000000000000000000000028152600401808473ffffffffffffffffffffffffffffffffffffffff1673ffffffffffffffffffffffffffffffffffffffff1681526020018373ffffffffffffffffffffffffffffffffffffffff1673ffffffffffffffffffffffffffffffffffffffff1681526020018281526020019350505050602060405180830381600087803b158015611f6d57600080fd5b505af1158015611f81573d6000803e3d6000fd5b505050506040513d6020811015611f9757600080fd5b81019080805190602001909291905050501515611fb057fe5b5b5b8173ffffffffffffffffffffffffffffffffffffffff16636b08f2ef348d8d8d338e8e8e8e6040518a63ffffffff167c010000000000000000000000000000000000000000000000000000000002815260040180806020018981526020018881526020018773ffffffffffffffffffffffffffffffffffffffff1673ffffffffffffffffffffffffffffffffffffffff1681526020018681526020018560ff1660ff1681526020018460001916600019168152602001836000191660001916815260200182810382528a818151815260200191508051906020019060200280838360005b838110156120b1578082015181840152602081019050612096565b5050505090500199505050505050505050506020604051808303818588803b1580156120dc57600080fd5b505af11580156120f0573d6000803e3d6000fd5b50505050506040513d602081101561210757600080fd5b81019080805190602001909291905050509350505050979650505050505050565b6000809054906101000a900473ffffffffffffffffffffffffffffffffffffffff1673ffffffffffffffffffffffffffffffffffffffff163373ffffffffffffffffffffffffffffffffffffffff1614806121d05750600360009054906101000a900473ffffffffffffffffffffffffffffffffffffffff1673ffffffffffffffffffffffffffffffffffffffff163373ffffffffffffffffffffffffffffffffffffffff16145b15156121db57600080fd5b801515600c809054906101000a900460ff1615151415612259578015600c806101000a81548160ff0219169083151502179055507fb8e670608a57255ce4f35952b324cba70211a4200a91ce81d26e06d488c1f66b600c809054906101000a900460ff16604051808215151515815260200191505060405180910390a15b50565b7f436f6e747261637452656769737472790000000000000000000000000000000081565b6000806000806000806000600860009054906101000a900473ffffffffffffffffffffffffffffffffffffffff1673ffffffffffffffffffffffffffffffffffffffff1663bb34534c7f42616e636f724e6574776f726b000000000000000000000000000000000000006040518263ffffffff167c0100000000000000000000000000000000000000000000000000000000028152600401808260001916600019168152602001915050602060405180830381600087803b15801561234457600080fd5b505af1158015612358573d6000803e3d6000fd5b505050506040513d602081101561236e57600080fd5b810190808051906020019092919050505090508073ffffffffffffffffffffffffffffffffffffffff163373ffffffffffffffffffffffffffffffffffffffff161415156123bb57600080fd5b600c809054906101000a900460ff1615156123d257fe5b876000811115156123e257600080fd5b8a73ffffffffffffffffffffffffffffffffffffffff168c73ffffffffffffffffffffffffffffffffffffffff161415151561241d57600080fd5b600260009054906101000a900473ffffffffffffffffffffffffffffffffffffffff1673ffffffffffffffffffffffffffffffffffffffff168b73ffffffffffffffffffffffffffffffffffffffff1614156124855761247e8c8b8b6167fd565b9750612aad565b600260009054906101000a900473ffffffffffffffffffffffffffffffffffffffff1673ffffffffffffffffffffffffffffffffffffffff168c73ffffffffffffffffffffffffffffffffffffffff1614156124ed576124e68b8b8b616c19565b9750612aad565b6124f88c8c8c61492c565b8097508198505050600087141580156125115750888710155b151561251c57600080fd5b600b60008d73ffffffffffffffffffffffffffffffffffffffff1673ffffffffffffffffffffffffffffffffffffffff16815260200190815260200160002094508460010160049054906101000a900460ff161561258b5761258285600001548b6171fa565b85600001819055505b600b60008c73ffffffffffffffffffffffffffffffffffffffff1673ffffffffffffffffffffffffffffffffffffffff16815260200190815260200160002093508360010160049054906101000a900460ff16156125fa576125f1846000015488617218565b84600001819055505b6126038b615cfa565b9250828710151561261057fe5b8b73ffffffffffffffffffffffffffffffffffffffff166323b872dd33308d6040518463ffffffff167c0100000000000000000000000000000000000000000000000000000000028152600401808473ffffffffffffffffffffffffffffffffffffffff1673ffffffffffffffffffffffffffffffffffffffff1681526020018373ffffffffffffffffffffffffffffffffffffffff1673ffffffffffffffffffffffffffffffffffffffff1681526020018281526020019350505050602060405180830381600087803b1580156126e757600080fd5b505af11580156126fb573d6000803e3d6000fd5b505050506040513d602081101561271157600080fd5b8101908080519060200190929190505050151561272a57fe5b8a73ffffffffffffffffffffffffffffffffffffffff1663a9059cbb33896040518363ffffffff167c0100000000000000000000000000000000000000000000000000000000028152600401808373ffffffffffffffffffffffffffffffffffffffff1673ffffffffffffffffffffffffffffffffffffffff16815260200182815260200192505050602060405180830381600087803b1580156127cd57600080fd5b505af11580156127e1573d6000803e3d6000fd5b505050506040513d60208110156127f757600080fd5b8101908080519060200190929190505050151561281057fe5b61281d8c8c8c8a8a617231565b8b73ffffffffffffffffffffffffffffffffffffffff167f8a6a7f53b3c8fa1dc4b83e3f1be668c1b251ff8d44cdcb83eb3acec3fec6a788600260009054906101000a900473ffffffffffffffffffffffffffffffffffffffff1673ffffffffffffffffffffffffffffffffffffffff166318160ddd6040518163ffffffff167c0100000000000000000000000000000000000000000000000000000000028152600401602060405180830381600087803b1580156128db57600080fd5b505af11580156128ef573d6000803e3d6000fd5b505050506040513d602081101561290557600080fd5b810190808051906020019092919050505061291f8f615cfa565b8860010160009054906101000a900463ffffffff16604051808481526020018381526020018263ffffffff1663ffffffff168152602001935050505060405180910390a28a73ffffffffffffffffffffffffffffffffffffffff167f8a6a7f53b3c8fa1dc4b83e3f1be668c1b251ff8d44cdcb83eb3acec3fec6a788600260009054906101000a900473ffffffffffffffffffffffffffffffffffffffff1673ffffffffffffffffffffffffffffffffffffffff166318160ddd6040518163ffffffff167c0100000000000000000000000000000000000000000000000000000000028152600401602060405180830381600087803b158015612a2157600080fd5b505af1158015612a35573d6000803e3d6000fd5b505050506040513d6020811015612a4b57600080fd5b8101908080519060200190929190505050612a658e615cfa565b8760010160009054906101000a900463ffffffff16604051808481526020018381526020018263ffffffff1663ffffffff168152602001935050505060405180910390a28697505b50505050505050949350505050565b6000809054906101000a900473ffffffffffffffffffffffffffffffffffffffff1673ffffffffffffffffffffffffffffffffffffffff163373ffffffffffffffffffffffffffffffffffffffff16141515612b1757600080fd5b600260009054906101000a900473ffffffffffffffffffffffffffffffffffffffff1673ffffffffffffffffffffffffffffffffffffffff166379ba50976040518163ffffffff167c0100000000000000000000000000000000000000000000000000000000028152600401600060405180830381600087803b158015612b9d57600080fd5b505af1158015612bb1573d6000803e3d6000fd5b50505050565b60008160ff16620f424067ffffffffffffffff160a67ffffffffffffffff16612c16848460ff16600c60089054906101000a900463ffffffff1663ffffffff16620f42400367ffffffffffffffff160a67ffffffffffffffff166172f0565b811515612c1f57fe5b04905092915050565b60068054600181600116156101000203166002900480601f016020809104026020016040519081016040528092919081815260200182805460018160011615610100020316600290048015612cbe5780601f10612c9357610100808354040283529160200191612cbe565b820191906000526020600020905b815481529060010190602001808311612ca157829003601f168201915b505050505081565b6000809054906101000a900473ffffffffffffffffffffffffffffffffffffffff1673ffffffffffffffffffffffffffffffffffffffff163373ffffffffffffffffffffffffffffffffffffffff16141515612d2157600080fd5b3073ffffffffffffffffffffffffffffffffffffffff16600260009054906101000a900473ffffffffffffffffffffffffffffffffffffffff1673ffffffffffffffffffffffffffffffffffffffff16638da5cb5b6040518163ffffffff167c0100000000000000000000000000000000000000000000000000000000028152600401602060405180830381600087803b158015612dbe57600080fd5b505af1158015612dd2573d6000803e3d6000fd5b505050506040513d6020811015612de857600080fd5b810190808051906020019092919050505073ffffffffffffffffffffffffffffffffffffffff1614151515612e1c57600080fd5b82600073ffffffffffffffffffffffffffffffffffffffff168173ffffffffffffffffffffffffffffffffffffffff1614151515612e5957600080fd5b833073ffffffffffffffffffffffffffffffffffffffff168173ffffffffffffffffffffffffffffffffffffffff1614151515612e9557600080fd5b8360008163ffffffff16118015612ebb5750620f424063ffffffff168163ffffffff1611155b1515612ec657600080fd5b600260009054906101000a900473ffffffffffffffffffffffffffffffffffffffff1673ffffffffffffffffffffffffffffffffffffffff168673ffffffffffffffffffffffffffffffffffffffff1614158015612f715750600b60008773ffffffffffffffffffffffffffffffffffffffff1673ffffffffffffffffffffffffffffffffffffffff16815260200190815260200160002060010160069054906101000a900460ff16155b8015612fa05750620f424063ffffffff1685600c60009054906101000a900463ffffffff160163ffffffff1611155b1515612fab57600080fd5b6000600b60008873ffffffffffffffffffffffffffffffffffffffff1673ffffffffffffffffffffffffffffffffffffffff1681526020019081526020016000206000018190555084600b60008873ffffffffffffffffffffffffffffffffffffffff1673ffffffffffffffffffffffffffffffffffffffff16815260200190815260200160002060010160006101000a81548163ffffffff021916908363ffffffff16021790555083600b60008873ffffffffffffffffffffffffffffffffffffffff1673ffffffffffffffffffffffffffffffffffffffff16815260200190815260200160002060010160046101000a81548160ff0219169083151502179055506001600b60008873ffffffffffffffffffffffffffffffffffffffff1673ffffffffffffffffffffffffffffffffffffffff16815260200190815260200160002060010160056101000a81548160ff0219169083151502179055506001600b60008873ffffffffffffffffffffffffffffffffffffffff1673ffffffffffffffffffffffffffffffffffffffff16815260200190815260200160002060010160066101000a81548160ff021916908315150217905550600a8690806001815401808255809150509060018203906000526020600020016000909192909190916101000a81548173ffffffffffffffffffffffffffffffffffffffff021916908373ffffffffffffffffffffffffffffffffffffffff1602179055505084600c60008282829054906101000a900463ffffffff160192506101000a81548163ffffffff021916908363ffffffff160217905550505050505050565b600080600080600080620f424063ffffffff16600c60009054906101000a900463ffffffff1663ffffffff1614151561324057600080fd5b600260009054906101000a900473ffffffffffffffffffffffffffffffffffffffff1673ffffffffffffffffffffffffffffffffffffffff166318160ddd6040518163ffffffff167c0100000000000000000000000000000000000000000000000000000000028152600401602060405180830381600087803b1580156132c657600080fd5b505af11580156132da573d6000803e3d6000fd5b505050506040513d60208110156132f057600080fd5b81019080805190602001909291905050509550600260009054906101000a900473ffffffffffffffffffffffffffffffffffffffff1673ffffffffffffffffffffffffffffffffffffffff1663a24835d133896040518363ffffffff167c0100000000000000000000000000000000000000000000000000000000028152600401808373ffffffffffffffffffffffffffffffffffffffff1673ffffffffffffffffffffffffffffffffffffffff16815260200182815260200192505050600060405180830381600087803b1580156133c857600080fd5b505af11580156133dc573d6000803e3d6000fd5b50505050600091505b600a805490508261ffff16101561363c57600a8261ffff1681548110151561340957fe5b9060005260206000200160009054906101000a900473ffffffffffffffffffffffffffffffffffffffff16945061343f85615cfa565b93508561344c88866172f0565b81151561345557fe5b049250600b60008673ffffffffffffffffffffffffffffffffffffffff1673ffffffffffffffffffffffffffffffffffffffff16815260200190815260200160002090508060010160049054906101000a900460ff16156134c7576134be816000015484617218565b81600001819055505b8473ffffffffffffffffffffffffffffffffffffffff1663a9059cbb33856040518363ffffffff167c0100000000000000000000000000000000000000000000000000000000028152600401808373ffffffffffffffffffffffffffffffffffffffff1673ffffffffffffffffffffffffffffffffffffffff16815260200182815260200192505050602060405180830381600087803b15801561356a57600080fd5b505af115801561357e573d6000803e3d6000fd5b505050506040513d602081101561359457600080fd5b810190808051906020019092919050505015156135ad57fe5b8473ffffffffffffffffffffffffffffffffffffffff167f8a6a7f53b3c8fa1dc4b83e3f1be668c1b251ff8d44cdcb83eb3acec3fec6a7888888038587038460010160009054906101000a900463ffffffff16604051808481526020018381526020018263ffffffff1663ffffffff168152602001935050505060405180910390a281806001019250506133e5565b50505050505050565b6000809054906101000a900473ffffffffffffffffffffffffffffffffffffffff1673ffffffffffffffffffffffffffffffffffffffff163373ffffffffffffffffffffffffffffffffffffffff161415156136a057600080fd5b600260009054906101000a900473ffffffffffffffffffffffffffffffffffffffff1673ffffffffffffffffffffffffffffffffffffffff16635e35359e8484846040518463ffffffff167c0100000000000000000000000000000000000000000000000000000000028152600401808473ffffffffffffffffffffffffffffffffffffffff1673ffffffffffffffffffffffffffffffffffffffff1681526020018373ffffffffffffffffffffffffffffffffffffffff1673ffffffffffffffffffffffffffffffffffffffff1681526020018281526020019350505050600060405180830381600087803b15801561379957600080fd5b505af11580156137ad573d6000803e3d6000fd5b50505050505050565b600460009054906101000a900473ffffffffffffffffffffffffffffffffffffffff1681565b600360009054906101000a900473ffffffffffffffffffffffffffffffffffffffff1681565b6000600760009054906101000a900460ff168061386b57506000809054906101000a900473ffffffffffffffffffffffffffffffffffffffff1673ffffffffffffffffffffffffffffffffffffffff163373ffffffffffffffffffffffffffffffffffffffff16145b151561387657600080fd5b600860009054906101000a900473ffffffffffffffffffffffffffffffffffffffff1673ffffffffffffffffffffffffffffffffffffffff1663bb34534c7f436f6e74726163745265676973747279000000000000000000000000000000006040518263ffffffff167c0100000000000000000000000000000000000000000000000000000000028152600401808260001916600019168152602001915050602060405180830381600087803b15801561392f57600080fd5b505af1158015613943573d6000803e3d6000fd5b505050506040513d602081101561395957600080fd5b81019080805190602001909291905050509050600860009054906101000a900473ffffffffffffffffffffffffffffffffffffffff1673ffffffffffffffffffffffffffffffffffffffff168173ffffffffffffffffffffffffffffffffffffffff16141580156139f75750600073ffffffffffffffffffffffffffffffffffffffff168173ffffffffffffffffffffffffffffffffffffffff1614155b1515613a0257600080fd5b600860009054906101000a900473ffffffffffffffffffffffffffffffffffffffff16600760026101000a81548173ffffffffffffffffffffffffffffffffffffffff021916908373ffffffffffffffffffffffffffffffffffffffff16021790555080600860006101000a81548173ffffffffffffffffffffffffffffffffffffffff021916908373ffffffffffffffffffffffffffffffffffffffff16021790555050565b6000809054906101000a900473ffffffffffffffffffffffffffffffffffffffff1673ffffffffffffffffffffffffffffffffffffffff163373ffffffffffffffffffffffffffffffffffffffff16141515613b0457600080fd5b803073ffffffffffffffffffffffffffffffffffffffff168173ffffffffffffffffffffffffffffffffffffffff1614151515613b4057600080fd5b81600960006101000a81548173ffffffffffffffffffffffffffffffffffffffff021916908373ffffffffffffffffffffffffffffffffffffffff1602179055505050565b6000809054906101000a900473ffffffffffffffffffffffffffffffffffffffff1673ffffffffffffffffffffffffffffffffffffffff163373ffffffffffffffffffffffffffffffffffffffff16141515613be057600080fd5b81600b60008273ffffffffffffffffffffffffffffffffffffffff1673ffffffffffffffffffffffffffffffffffffffff16815260200190815260200160002060010160069054906101000a900460ff161515613c3c57600080fd5b8115600b60008573ffffffffffffffffffffffffffffffffffffffff1673ffffffffffffffffffffffffffffffffffffffff16815260200190815260200160002060010160056101000a81548160ff021916908315150217905550505050565b60055481565b600c60089054906101000a900463ffffffff1681565b7f42616e636f72436f6e766572746572466163746f72790000000000000000000081565b6000600860009054906101000a900473ffffffffffffffffffffffffffffffffffffffff1673ffffffffffffffffffffffffffffffffffffffff1663bb34534c7f42616e636f72436f6e76657274657255706772616465720000000000000000006040518263ffffffff167c0100000000000000000000000000000000000000000000000000000000028152600401808260001916600019168152602001915050602060405180830381600087803b158015613d9757600080fd5b505af1158015613dab573d6000803e3d6000fd5b505050506040513d6020811015613dc157600080fd5b81019080805190602001909291905050509050600b60008573ffffffffffffffffffffffffffffffffffffffff1673ffffffffffffffffffffffffffffffffffffffff16815260200190815260200160002060010160069054906101000a900460ff161580613f1c57503073ffffffffffffffffffffffffffffffffffffffff16600260009054906101000a900473ffffffffffffffffffffffffffffffffffffffff1673ffffffffffffffffffffffffffffffffffffffff16638da5cb5b6040518163ffffffff167c0100000000000000000000000000000000000000000000000000000000028152600401602060405180830381600087803b158015613ec857600080fd5b505af1158015613edc573d6000803e3d6000fd5b505050506040513d6020811015613ef257600080fd5b810190808051906020019092919050505073ffffffffffffffffffffffffffffffffffffffff1614155b80613f7357508073ffffffffffffffffffffffffffffffffffffffff166000809054906101000a900473ffffffffffffffffffffffffffffffffffffffff1673ffffffffffffffffffffffffffffffffffffffff16145b1515613f7e57600080fd5b613f89848484617323565b50505050565b6000613f9d85858585612280565b9050949350505050565b600760029054906101000a900473ffffffffffffffffffffffffffffffffffffffff1681565b7f424e54436f6e766572746572000000000000000000000000000000000000000081565b7f42616e636f72466f726d756c610000000000000000000000000000000000000081565b6000600a80549050905090565b6000806000806000806000803073ffffffffffffffffffffffffffffffffffffffff16600260009054906101000a900473ffffffffffffffffffffffffffffffffffffffff1673ffffffffffffffffffffffffffffffffffffffff16638da5cb5b6040518163ffffffff167c0100000000000000000000000000000000000000000000000000000000028152600401602060405180830381600087803b1580156140cb57600080fd5b505af11580156140df573d6000803e3d6000fd5b505050506040513d60208110156140f557600080fd5b810190808051906020019092919050505073ffffffffffffffffffffffffffffffffffffffff1614151561412857600080fd5b89600b60008273ffffffffffffffffffffffffffffffffffffffff1673ffffffffffffffffffffffffffffffffffffffff16815260200190815260200160002060010160069054906101000a900460ff16151561418457600080fd5b600b60008c73ffffffffffffffffffffffffffffffffffffffff1673ffffffffffffffffffffffffffffffffffffffff1681526020019081526020016000209650600260009054906101000a900473ffffffffffffffffffffffffffffffffffffffff1673ffffffffffffffffffffffffffffffffffffffff166318160ddd6040518163ffffffff167c0100000000000000000000000000000000000000000000000000000000028152600401602060405180830381600087803b15801561424b57600080fd5b505af115801561425f573d6000803e3d6000fd5b505050506040513d602081101561427557600080fd5b810190808051906020019092919050505095506142918b615cfa565b9450600860009054906101000a900473ffffffffffffffffffffffffffffffffffffffff1673ffffffffffffffffffffffffffffffffffffffff1663bb34534c7f42616e636f72466f726d756c61000000000000000000000000000000000000006040518263ffffffff167c0100000000000000000000000000000000000000000000000000000000028152600401808260001916600019168152602001915050602060405180830381600087803b15801561434c57600080fd5b505af1158015614360573d6000803e3d6000fd5b505050506040513d602081101561437657600080fd5b810190808051906020019092919050505093508373ffffffffffffffffffffffffffffffffffffffff166349f9b0f787878a60010160009054906101000a900463ffffffff168e6040518563ffffffff167c0100000000000000000000000000000000000000000000000000000000028152600401808581526020018481526020018363ffffffff1663ffffffff168152602001828152602001945050505050602060405180830381600087803b15801561443057600080fd5b505af1158015614444573d6000803e3d6000fd5b505050506040513d602081101561445a57600080fd5b81019080805190602001909291905050509250614478836001612bb7565b91508182840398509850505050505050509250929050565b60006060604051908101604052808673ffffffffffffffffffffffffffffffffffffffff1673ffffffffffffffffffffffffffffffffffffffff168152602001600260009054906101000a900473ffffffffffffffffffffffffffffffffffffffff1673ffffffffffffffffffffffffffffffffffffffff1673ffffffffffffffffffffffffffffffffffffffff1681526020018573ffffffffffffffffffffffffffffffffffffffff1673ffffffffffffffffffffffffffffffffffffffff16815250600d906003614564929190617522565b506145f6600d8054806020026020016040519081016040528092919081815260200182805480156145ea57602002820191906000526020600020905b8160009054906101000a900473ffffffffffffffffffffffffffffffffffffffff1673ffffffffffffffffffffffffffffffffffffffff16815260200190600101908083116145a0575b50505050508484616170565b9050949350505050565b600160009054906101000a900473ffffffffffffffffffffffffffffffffffffffff1673ffffffffffffffffffffffffffffffffffffffff163373ffffffffffffffffffffffffffffffffffffffff1614151561465c57600080fd5b600160009054906101000a900473ffffffffffffffffffffffffffffffffffffffff1673ffffffffffffffffffffffffffffffffffffffff166000809054906101000a900473ffffffffffffffffffffffffffffffffffffffff1673ffffffffffffffffffffffffffffffffffffffff167f343765429aea5a34b3ff6a3785a98a5abb2597aca87bfbb58632c173d585373a60405160405180910390a3600160009054906101000a900473ffffffffffffffffffffffffffffffffffffffff166000806101000a81548173ffffffffffffffffffffffffffffffffffffffff021916908373ffffffffffffffffffffffffffffffffffffffff1602179055506000600160006101000a81548173ffffffffffffffffffffffffffffffffffffffff021916908373ffffffffffffffffffffffffffffffffffffffff160217905550565b600860009054906101000a900473ffffffffffffffffffffffffffffffffffffffff1681565b7f436f6e747261637446656174757265730000000000000000000000000000000081565b6000809054906101000a900473ffffffffffffffffffffffffffffffffffffffff1673ffffffffffffffffffffffffffffffffffffffff163373ffffffffffffffffffffffffffffffffffffffff1614151561484457600080fd5b600260009054906101000a900473ffffffffffffffffffffffffffffffffffffffff1673ffffffffffffffffffffffffffffffffffffffff16631608f18f826040518263ffffffff167c01000000000000000000000000000000000000000000000000000000000281526004018082151515158152602001915050600060405180830381600087803b1580156148d957600080fd5b505af11580156148ed573d6000803e3d6000fd5b5050505050565b600760019054906101000a900460ff1681565b6000809054906101000a900473ffffffffffffffffffffffffffffffffffffffff1681565b60008060008060008060003073ffffffffffffffffffffffffffffffffffffffff16600260009054906101000a900473ffffffffffffffffffffffffffffffffffffffff1673ffffffffffffffffffffffffffffffffffffffff16638da5cb5b6040518163ffffffff167c0100000000000000000000000000000000000000000000000000000000028152600401602060405180830381600087803b1580156149d457600080fd5b505af11580156149e8573d6000803e3d6000fd5b505050506040513d60208110156149fe57600080fd5b810190808051906020019092919050505073ffffffffffffffffffffffffffffffffffffffff16141515614a3157600080fd5b89600b60008273ffffffffffffffffffffffffffffffffffffffff1673ffffffffffffffffffffffffffffffffffffffff16815260200190815260200160002060010160069054906101000a900460ff161515614a8d57600080fd5b89600b60008273ffffffffffffffffffffffffffffffffffffffff1673ffffffffffffffffffffffffffffffffffffffff16815260200190815260200160002060010160069054906101000a900460ff161515614ae957600080fd5b600b60008d73ffffffffffffffffffffffffffffffffffffffff1673ffffffffffffffffffffffffffffffffffffffff1681526020019081526020016000209650600b60008c73ffffffffffffffffffffffffffffffffffffffff1673ffffffffffffffffffffffffffffffffffffffff16815260200190815260200160002095508560010160059054906101000a900460ff161515614b8857600080fd5b600860009054906101000a900473ffffffffffffffffffffffffffffffffffffffff1673ffffffffffffffffffffffffffffffffffffffff1663bb34534c7f42616e636f72466f726d756c61000000000000000000000000000000000000006040518263ffffffff167c0100000000000000000000000000000000000000000000000000000000028152600401808260001916600019168152602001915050602060405180830381600087803b158015614c4157600080fd5b505af1158015614c55573d6000803e3d6000fd5b505050506040513d6020811015614c6b57600080fd5b810190808051906020019092919050505094508473ffffffffffffffffffffffffffffffffffffffff166365098bb3614ca38e615cfa565b8960010160009054906101000a900463ffffffff16614cc18f615cfa565b8a60010160009054906101000a900463ffffffff168f6040518663ffffffff167c0100000000000000000000000000000000000000000000000000000000028152600401808681526020018563ffffffff1663ffffffff1681526020018481526020018363ffffffff1663ffffffff16815260200182815260200195505050505050602060405180830381600087803b158015614d5d57600080fd5b505af1158015614d71573d6000803e3d6000fd5b505050506040513d6020811015614d8757600080fd5b81019080805190602001909291905050509350614da5846002612bb7565b9250828385039850985050505050505050935093915050565b7f42616e636f724e6574776f726b0000000000000000000000000000000000000081565b7f42616e636f7247617350726963654c696d69740000000000000000000000000081565b600181565b600c60049054906101000a900463ffffffff1681565b6000806000806000806000803073ffffffffffffffffffffffffffffffffffffffff16600260009054906101000a900473ffffffffffffffffffffffffffffffffffffffff1673ffffffffffffffffffffffffffffffffffffffff16638da5cb5b6040518163ffffffff167c0100000000000000000000000000000000000000000000000000000000028152600401602060405180830381600087803b158015614eca57600080fd5b505af1158015614ede573d6000803e3d6000fd5b505050506040513d6020811015614ef457600080fd5b810190808051906020019092919050505073ffffffffffffffffffffffffffffffffffffffff16141515614f2757600080fd5b89600b60008273ffffffffffffffffffffffffffffffffffffffff1673ffffffffffffffffffffffffffffffffffffffff16815260200190815260200160002060010160069054906101000a900460ff161515614f8357600080fd5b600b60008c73ffffffffffffffffffffffffffffffffffffffff1673ffffffffffffffffffffffffffffffffffffffff16815260200190815260200160002096508660010160059054906101000a900460ff161515614fe157600080fd5b600260009054906101000a900473ffffffffffffffffffffffffffffffffffffffff1673ffffffffffffffffffffffffffffffffffffffff166318160ddd6040518163ffffffff167c0100000000000000000000000000000000000000000000000000000000028152600401602060405180830381600087803b15801561506757600080fd5b505af115801561507b573d6000803e3d6000fd5b505050506040513d602081101561509157600080fd5b810190808051906020019092919050505095506150ad8b615cfa565b9450600860009054906101000a900473ffffffffffffffffffffffffffffffffffffffff1673ffffffffffffffffffffffffffffffffffffffff1663bb34534c7f42616e636f72466f726d756c61000000000000000000000000000000000000006040518263ffffffff167c0100000000000000000000000000000000000000000000000000000000028152600401808260001916600019168152602001915050602060405180830381600087803b15801561516857600080fd5b505af115801561517c573d6000803e3d6000fd5b505050506040513d602081101561519257600080fd5b810190808051906020019092919050505093508373ffffffffffffffffffffffffffffffffffffffff166329a00e7c87878a60010160009054906101000a900463ffffffff168e6040518563ffffffff167c0100000000000000000000000000000000000000000000000000000000028152600401808581526020018481526020018363ffffffff1663ffffffff168152602001828152602001945050505050602060405180830381600087803b15801561524c57600080fd5b505af1158015615260573d6000803e3d6000fd5b505050506040513d602081101561527657600080fd5b81019080805190602001909291905050509250615294836001612bb7565b91508182840398509850505050505050509250929050565b6000809054906101000a900473ffffffffffffffffffffffffffffffffffffffff1673ffffffffffffffffffffffffffffffffffffffff163373ffffffffffffffffffffffffffffffffffffffff1614151561530757600080fd5b80600760016101000a81548160ff02191690831515021790555050565b6000809054906101000a900473ffffffffffffffffffffffffffffffffffffffff1673ffffffffffffffffffffffffffffffffffffffff163373ffffffffffffffffffffffffffffffffffffffff1614806153cc5750600360009054906101000a900473ffffffffffffffffffffffffffffffffffffffff1673ffffffffffffffffffffffffffffffffffffffff163373ffffffffffffffffffffffffffffffffffffffff16145b15156153d757600080fd5b600760029054906101000a900473ffffffffffffffffffffffffffffffffffffffff16600860006101000a81548173ffffffffffffffffffffffffffffffffffffffff021916908373ffffffffffffffffffffffffffffffffffffffff1602179055506000600760006101000a81548160ff021916908315150217905550565b600c809054906101000a900460ff1681565b600960009054906101000a900473ffffffffffffffffffffffffffffffffffffffff1681565b7f42616e636f72580000000000000000000000000000000000000000000000000081565b600460009054906101000a900473ffffffffffffffffffffffffffffffffffffffff1673ffffffffffffffffffffffffffffffffffffffff163373ffffffffffffffffffffffffffffffffffffffff1614151561550f57600080fd5b600460009054906101000a900473ffffffffffffffffffffffffffffffffffffffff1673ffffffffffffffffffffffffffffffffffffffff16600360009054906101000a900473ffffffffffffffffffffffffffffffffffffffff1673ffffffffffffffffffffffffffffffffffffffff167fbe4cc281795971a471c980e842627a7f1ea3892ddfce8c5b6357cd2611c1973260405160405180910390a3600460009054906101000a900473ffffffffffffffffffffffffffffffffffffffff16600360006101000a81548173ffffffffffffffffffffffffffffffffffffffff021916908373ffffffffffffffffffffffffffffffffffffffff1602179055506000600460006101000a81548173ffffffffffffffffffffffffffffffffffffffff021916908373ffffffffffffffffffffffffffffffffffffffff160217905550565b600080600080600080620f424063ffffffff16600c60009054906101000a900463ffffffff1663ffffffff1614151561568c57600080fd5b600c809054906101000a900460ff1615156156a357fe5b600260009054906101000a900473ffffffffffffffffffffffffffffffffffffffff1673ffffffffffffffffffffffffffffffffffffffff166318160ddd6040518163ffffffff167c0100000000000000000000000000000000000000000000000000000000028152600401602060405180830381600087803b15801561572957600080fd5b505af115801561573d573d6000803e3d6000fd5b505050506040513d602081101561575357600080fd5b81019080805190602001909291905050509550600091505b600a805490508261ffff1610156159f657600a8261ffff1681548110151561578f57fe5b9060005260206000200160009054906101000a900473ffffffffffffffffffffffffffffffffffffffff1694506157c585615cfa565b9350856157d288866172f0565b8115156157db57fe5b049250600b60008673ffffffffffffffffffffffffffffffffffffffff1673ffffffffffffffffffffffffffffffffffffffff16815260200190815260200160002090508060010160049054906101000a900460ff161561584d576158448160000154846171fa565b81600001819055505b8473ffffffffffffffffffffffffffffffffffffffff166323b872dd3330866040518463ffffffff167c0100000000000000000000000000000000000000000000000000000000028152600401808473ffffffffffffffffffffffffffffffffffffffff1673ffffffffffffffffffffffffffffffffffffffff1681526020018373ffffffffffffffffffffffffffffffffffffffff1673ffffffffffffffffffffffffffffffffffffffff1681526020018281526020019350505050602060405180830381600087803b15801561592457600080fd5b505af1158015615938573d6000803e3d6000fd5b505050506040513d602081101561594e57600080fd5b8101908080519060200190929190505050151561596757fe5b8473ffffffffffffffffffffffffffffffffffffffff167f8a6a7f53b3c8fa1dc4b83e3f1be668c1b251ff8d44cdcb83eb3acec3fec6a7888888018587018460010160009054906101000a900463ffffffff16604051808481526020018381526020018263ffffffff1663ffffffff168152602001935050505060405180910390a2818060010192505061576b565b600260009054906101000a900473ffffffffffffffffffffffffffffffffffffffff1673ffffffffffffffffffffffffffffffffffffffff1663867904b433896040518363ffffffff167c0100000000000000000000000000000000000000000000000000000000028152600401808373ffffffffffffffffffffffffffffffffffffffff1673ffffffffffffffffffffffffffffffffffffffff16815260200182815260200192505050600060405180830381600087803b158015615abb57600080fd5b505af1158015615acf573d6000803e3d6000fd5b5050505050505050505050565b600160009054906101000a900473ffffffffffffffffffffffffffffffffffffffff1681565b60008060009054906101000a900473ffffffffffffffffffffffffffffffffffffffff1673ffffffffffffffffffffffffffffffffffffffff163373ffffffffffffffffffffffffffffffffffffffff16141515615b5f57600080fd5b600860009054906101000a900473ffffffffffffffffffffffffffffffffffffffff1673ffffffffffffffffffffffffffffffffffffffff1663bb34534c7f42616e636f72436f6e76657274657255706772616465720000000000000000006040518263ffffffff167c0100000000000000000000000000000000000000000000000000000000028152600401808260001916600019168152602001915050602060405180830381600087803b158015615c1857600080fd5b505af1158015615c2c573d6000803e3d6000fd5b505050506040513d6020811015615c4257600080fd5b81019080805190602001909291905050509050615c5e816161cc565b8073ffffffffffffffffffffffffffffffffffffffff1663bc444e136005546040518263ffffffff167c0100000000000000000000000000000000000000000000000000000000028152600401808260001916600019168152602001915050600060405180830381600087803b158015615cd757600080fd5b505af1158015615ceb573d6000803e3d6000fd5b50505050615cf7614600565b50565b60008082600b60008273ffffffffffffffffffffffffffffffffffffffff1673ffffffffffffffffffffffffffffffffffffffff16815260200190815260200160002060010160069054906101000a900460ff161515615d5957600080fd5b600b60008573ffffffffffffffffffffffffffffffffffffffff1673ffffffffffffffffffffffffffffffffffffffff16815260200190815260200160002091508160010160049054906101000a900460ff16615e8b578373ffffffffffffffffffffffffffffffffffffffff166370a08231306040518263ffffffff167c0100000000000000000000000000000000000000000000000000000000028152600401808273ffffffffffffffffffffffffffffffffffffffff1673ffffffffffffffffffffffffffffffffffffffff168152602001915050602060405180830381600087803b158015615e4b57600080fd5b505af1158015615e5f573d6000803e3d6000fd5b505050506040513d6020811015615e7557600080fd5b8101908080519060200190929190505050615e91565b81600001545b92505050919050565b6000809054906101000a900473ffffffffffffffffffffffffffffffffffffffff1673ffffffffffffffffffffffffffffffffffffffff163373ffffffffffffffffffffffffffffffffffffffff161480615f425750600360009054906101000a900473ffffffffffffffffffffffffffffffffffffffff1673ffffffffffffffffffffffffffffffffffffffff163373ffffffffffffffffffffffffffffffffffffffff16145b1515615f4d57600080fd5b600360009054906101000a900473ffffffffffffffffffffffffffffffffffffffff1673ffffffffffffffffffffffffffffffffffffffff168173ffffffffffffffffffffffffffffffffffffffff1614151515615faa57600080fd5b80600460006101000a81548173ffffffffffffffffffffffffffffffffffffffff021916908373ffffffffffffffffffffffffffffffffffffffff16021790555050565b6000809054906101000a900473ffffffffffffffffffffffffffffffffffffffff1673ffffffffffffffffffffffffffffffffffffffff163373ffffffffffffffffffffffffffffffffffffffff1614806160965750600360009054906101000a900473ffffffffffffffffffffffffffffffffffffffff1673ffffffffffffffffffffffffffffffffffffffff163373ffffffffffffffffffffffffffffffffffffffff16145b15156160a157600080fd5b8060008163ffffffff16101580156160d75750600c60049054906101000a900463ffffffff1663ffffffff168163ffffffff1611155b15156160e257600080fd5b7f81cd2ffb37dd237c0e4e2a3de5265fcf9deb43d3e7801e80db9f1ccfba7ee600600c60089054906101000a900463ffffffff1683604051808363ffffffff1663ffffffff1681526020018263ffffffff1663ffffffff1681526020019250505060405180910390a181600c60086101000a81548163ffffffff021916908363ffffffff1602179055505050565b6000836002815111801561618657506015815111155b801561619f575060016002825181151561619c57fe5b06145b15156161aa57600080fd5b6161c285858560008060006001026000600102611b2a565b9150509392505050565b6000809054906101000a900473ffffffffffffffffffffffffffffffffffffffff1673ffffffffffffffffffffffffffffffffffffffff163373ffffffffffffffffffffffffffffffffffffffff1614151561622757600080fd5b6000809054906101000a900473ffffffffffffffffffffffffffffffffffffffff1673ffffffffffffffffffffffffffffffffffffffff168173ffffffffffffffffffffffffffffffffffffffff161415151561628357600080fd5b80600160006101000a81548173ffffffffffffffffffffffffffffffffffffffff021916908373ffffffffffffffffffffffffffffffffffffffff16021790555050565b6000809054906101000a900473ffffffffffffffffffffffffffffffffffffffff1673ffffffffffffffffffffffffffffffffffffffff163373ffffffffffffffffffffffffffffffffffffffff16148061636f5750600360009054906101000a900473ffffffffffffffffffffffffffffffffffffffff1673ffffffffffffffffffffffffffffffffffffffff163373ffffffffffffffffffffffffffffffffffffffff16145b151561637a57600080fd5b8015600760006101000a81548160ff02191690831515021790555050565b600260009054906101000a900473ffffffffffffffffffffffffffffffffffffffff1681565b6000600760019054906101000a900460ff1615156163db57600080fd5b600860009054906101000a900473ffffffffffffffffffffffffffffffffffffffff1673ffffffffffffffffffffffffffffffffffffffff1663bb34534c7f42616e636f7258000000000000000000000000000000000000000000000000006040518263ffffffff167c0100000000000000000000000000000000000000000000000000000000028152600401808260001916600019168152602001915050602060405180830381600087803b15801561649457600080fd5b505af11580156164a8573d6000803e3d6000fd5b505050506040513d60208110156164be57600080fd5b810190808051906020019092919050505090508073ffffffffffffffffffffffffffffffffffffffff163373ffffffffffffffffffffffffffffffffffffffff1614151561650b57600080fd5b600260009054906101000a900473ffffffffffffffffffffffffffffffffffffffff1673ffffffffffffffffffffffffffffffffffffffff1663a24835d184846040518363ffffffff167c0100000000000000000000000000000000000000000000000000000000028152600401808373ffffffffffffffffffffffffffffffffffffffff1673ffffffffffffffffffffffffffffffffffffffff16815260200182815260200192505050600060405180830381600087803b1580156165d057600080fd5b505af11580156165e4573d6000803e3d6000fd5b50505050600260009054906101000a900473ffffffffffffffffffffffffffffffffffffffff1673ffffffffffffffffffffffffffffffffffffffff1663867904b482846040518363ffffffff167c0100000000000000000000000000000000000000000000000000000000028152600401808373ffffffffffffffffffffffffffffffffffffffff1673ffffffffffffffffffffffffffffffffffffffff16815260200182815260200192505050600060405180830381600087803b1580156166ad57600080fd5b505af11580156166c1573d6000803e3d6000fd5b50505050505050565b6000809054906101000a900473ffffffffffffffffffffffffffffffffffffffff1673ffffffffffffffffffffffffffffffffffffffff163373ffffffffffffffffffffffffffffffffffffffff1614151561672557600080fd5b600260009054906101000a900473ffffffffffffffffffffffffffffffffffffffff1673ffffffffffffffffffffffffffffffffffffffff1663f2fde38b826040518263ffffffff167c0100000000000000000000000000000000000000000000000000000000028152600401808273ffffffffffffffffffffffffffffffffffffffff1673ffffffffffffffffffffffffffffffffffffffff168152602001915050600060405180830381600087803b1580156167e257600080fd5b505af11580156167f6573d6000803e3d6000fd5b5050505050565b60008060008061680d8787614e21565b8093508194505050600083141580156168265750848310155b151561683157600080fd5b600b60008873ffffffffffffffffffffffffffffffffffffffff1673ffffffffffffffffffffffffffffffffffffffff16815260200190815260200160002090508060010160049054906101000a900460ff16156168a0576168978160000154876171fa565b81600001819055505b8673ffffffffffffffffffffffffffffffffffffffff166323b872dd3330896040518463ffffffff167c0100000000000000000000000000000000000000000000000000000000028152600401808473ffffffffffffffffffffffffffffffffffffffff1673ffffffffffffffffffffffffffffffffffffffff1681526020018373ffffffffffffffffffffffffffffffffffffffff1673ffffffffffffffffffffffffffffffffffffffff1681526020018281526020019350505050602060405180830381600087803b15801561697757600080fd5b505af115801561698b573d6000803e3d6000fd5b505050506040513d60208110156169a157600080fd5b810190808051906020019092919050505015156169ba57fe5b600260009054906101000a900473ffffffffffffffffffffffffffffffffffffffff1673ffffffffffffffffffffffffffffffffffffffff1663867904b433856040518363ffffffff167c0100000000000000000000000000000000000000000000000000000000028152600401808373ffffffffffffffffffffffffffffffffffffffff1673ffffffffffffffffffffffffffffffffffffffff16815260200182815260200192505050600060405180830381600087803b158015616a7f57600080fd5b505af1158015616a93573d6000803e3d6000fd5b50505050616ac687600260009054906101000a900473ffffffffffffffffffffffffffffffffffffffff16888686617231565b8673ffffffffffffffffffffffffffffffffffffffff167f8a6a7f53b3c8fa1dc4b83e3f1be668c1b251ff8d44cdcb83eb3acec3fec6a788600260009054906101000a900473ffffffffffffffffffffffffffffffffffffffff1673ffffffffffffffffffffffffffffffffffffffff166318160ddd6040518163ffffffff167c0100000000000000000000000000000000000000000000000000000000028152600401602060405180830381600087803b158015616b8457600080fd5b505af1158015616b98573d6000803e3d6000fd5b505050506040513d6020811015616bae57600080fd5b8101908080519060200190929190505050616bc88a615cfa565b8460010160009054906101000a900463ffffffff16604051808481526020018381526020018263ffffffff1663ffffffff168152602001935050505060405180910390a28293505050509392505050565b600080600080600080600260009054906101000a900473ffffffffffffffffffffffffffffffffffffffff1673ffffffffffffffffffffffffffffffffffffffff166370a08231336040518263ffffffff167c0100000000000000000000000000000000000000000000000000000000028152600401808273ffffffffffffffffffffffffffffffffffffffff1673ffffffffffffffffffffffffffffffffffffffff168152602001915050602060405180830381600087803b158015616cdf57600080fd5b505af1158015616cf3573d6000803e3d6000fd5b505050506040513d6020811015616d0957600080fd5b81019080805190602001909291905050508811151515616d2857600080fd5b616d328989614022565b809550819650505060008514158015616d4b5750868510155b1515616d5657600080fd5b600260009054906101000a900473ffffffffffffffffffffffffffffffffffffffff1673ffffffffffffffffffffffffffffffffffffffff166318160ddd6040518163ffffffff167c0100000000000000000000000000000000000000000000000000000000028152600401602060405180830381600087803b158015616ddc57600080fd5b505af1158015616df0573d6000803e3d6000fd5b505050506040513d6020811015616e0657600080fd5b81019080805190602001909291905050509250616e2289615cfa565b915081851080616e3c57508185148015616e3b57508288145b5b1515616e4457fe5b600b60008a73ffffffffffffffffffffffffffffffffffffffff1673ffffffffffffffffffffffffffffffffffffffff16815260200190815260200160002090508060010160049054906101000a900460ff1615616eb357616eaa816000015486617218565b81600001819055505b600260009054906101000a900473ffffffffffffffffffffffffffffffffffffffff1673ffffffffffffffffffffffffffffffffffffffff1663a24835d1338a6040518363ffffffff167c0100000000000000000000000000000000000000000000000000000000028152600401808373ffffffffffffffffffffffffffffffffffffffff1673ffffffffffffffffffffffffffffffffffffffff16815260200182815260200192505050600060405180830381600087803b158015616f7857600080fd5b505af1158015616f8c573d6000803e3d6000fd5b505050508873ffffffffffffffffffffffffffffffffffffffff1663a9059cbb33876040518363ffffffff167c0100000000000000000000000000000000000000000000000000000000028152600401808373ffffffffffffffffffffffffffffffffffffffff1673ffffffffffffffffffffffffffffffffffffffff16815260200182815260200192505050602060405180830381600087803b15801561703357600080fd5b505af1158015617047573d6000803e3d6000fd5b505050506040513d602081101561705d57600080fd5b8101908080519060200190929190505050151561707657fe5b6170a5600260009054906101000a900473ffffffffffffffffffffffffffffffffffffffff168a8a8888617231565b8873ffffffffffffffffffffffffffffffffffffffff167f8a6a7f53b3c8fa1dc4b83e3f1be668c1b251ff8d44cdcb83eb3acec3fec6a788600260009054906101000a900473ffffffffffffffffffffffffffffffffffffffff1673ffffffffffffffffffffffffffffffffffffffff166318160ddd6040518163ffffffff167c0100000000000000000000000000000000000000000000000000000000028152600401602060405180830381600087803b15801561716357600080fd5b505af1158015617177573d6000803e3d6000fd5b505050506040513d602081101561718d57600080fd5b81019080805190602001909291905050506171a78c615cfa565b8460010160009054906101000a900463ffffffff16604051808481526020018381526020018263ffffffff1663ffffffff168152602001935050505060405180910390a284955050505050509392505050565b600080828401905083811015151561720e57fe5b8091505092915050565b600081831015151561722657fe5b818303905092915050565b7f8000000000000000000000000000000000000000000000000000000000000000811115151561725d57fe5b3373ffffffffffffffffffffffffffffffffffffffff168473ffffffffffffffffffffffffffffffffffffffff168673ffffffffffffffffffffffffffffffffffffffff167f276856b36cbc45526a0ba64f44611557a2a8b68662c5388e9fe6d72e86e1c8cb86868660405180848152602001838152602001828152602001935050505060405180910390a45050505050565b60008082840290506000841480617311575082848281151561730e57fe5b04145b151561731957fe5b8091505092915050565b6000809054906101000a900473ffffffffffffffffffffffffffffffffffffffff1673ffffffffffffffffffffffffffffffffffffffff163373ffffffffffffffffffffffffffffffffffffffff1614151561737e57600080fd5b82600073ffffffffffffffffffffffffffffffffffffffff168173ffffffffffffffffffffffffffffffffffffffff16141515156173bb57600080fd5b82600073ffffffffffffffffffffffffffffffffffffffff168173ffffffffffffffffffffffffffffffffffffffff16141515156173f857600080fd5b833073ffffffffffffffffffffffffffffffffffffffff168173ffffffffffffffffffffffffffffffffffffffff161415151561743457600080fd5b8573ffffffffffffffffffffffffffffffffffffffff1663a9059cbb86866040518363ffffffff167c0100000000000000000000000000000000000000000000000000000000028152600401808373ffffffffffffffffffffffffffffffffffffffff1673ffffffffffffffffffffffffffffffffffffffff16815260200182815260200192505050602060405180830381600087803b1580156174d757600080fd5b505af11580156174eb573d6000803e3d6000fd5b505050506040513d602081101561750157600080fd5b8101908080519060200190929190505050151561751a57fe5b505050505050565b82805482825590600052602060002090810192821561759b579160200282015b8281111561759a5782518260006101000a81548173ffffffffffffffffffffffffffffffffffffffff021916908373ffffffffffffffffffffffffffffffffffffffff16021790555091602001919060010190617542565b5b5090506175a891906175ac565b5090565b6175ec91905b808211156175e857600081816101000a81549073ffffffffffffffffffffffffffffffffffffffff0219169055506001016175b2565b5090565b905600a165627a7a72305820406f15f4d6f4655dc61150a97307f02f9ebdaeca9b2f9beadc7874b49d2331430029a165627a7a723058206b227974948bede691a71e69099db7d85a86f73a3034eb87f6ac09dc8f1035a40029",
  "source": "pragma solidity ^0.4.24;\nimport './BancorConverter.sol';\nimport './interfaces/IBancorConverterFactory.sol';\nimport '../utility/interfaces/IContractRegistry.sol';\n\n/*\n    Bancor Converter Factory\n*/\ncontract BancorConverterFactory is IBancorConverterFactory {\n    // triggered when a new converter is created\n    event NewConverter(address indexed _converter, address indexed _owner);\n\n    /**\n        @dev constructor\n    */\n    constructor() public {\n    }\n\n    /**\n        @dev creates a new converter with the given arguments and transfers\n        the ownership and management to the sender.\n\n        @param  _token              smart token governed by the converter\n        @param  _registry           address of a contract registry contract\n        @param  _maxConversionFee   maximum conversion fee, represented in ppm\n        @param  _connectorToken     optional, initial connector, allows defining the first connector at deployment time\n        @param  _connectorWeight    optional, weight for the initial connector\n\n        @return a new converter\n    */\n    function createConverter(\n        ISmartToken _token,\n        IContractRegistry _registry,\n        uint32 _maxConversionFee,\n        IERC20Token _connectorToken,\n        uint32 _connectorWeight\n    ) public returns(address converterAddress) {\n        BancorConverter converter = new BancorConverter(\n            _token,\n            _registry,\n            _maxConversionFee,\n            _connectorToken,\n            _connectorWeight\n        );\n\n        converter.transferOwnership(msg.sender);\n        converter.transferManagement(msg.sender);\n\n        address _converterAddress = address(converter);\n        emit NewConverter(_converterAddress, msg.sender);\n        return _converterAddress;\n    }\n}\n",
  "sourcePath": "/home/dog/code/kraken/MyBit-BancorConverter.tech/contracts/bancor/converter/BancorConverterFactory.sol",
  "compiler": {
    "name": "solc",
    "version": "0.4.25+commit.59dbf8f1.Emscripten.clang"
  },
  "schemaVersion": "3.0.0-beta.0",
  "updatedAt": "2018-12-12T09:14:33.158Z"
}