{
  "contractName": "BancorGasPriceLimit",
  "abi": [
    {
      "constant": false,
      "inputs": [],
      "name": "acceptOwnership",
      "outputs": [],
      "payable": false,
      "stateMutability": "nonpayable",
      "type": "function"
    },
    {
      "constant": true,
      "inputs": [],
      "name": "owner",
      "outputs": [
        {
          "name": "",
          "type": "address"
        }
      ],
      "payable": false,
      "stateMutability": "view",
      "type": "function"
    },
    {
      "constant": true,
      "inputs": [],
      "name": "newOwner",
      "outputs": [
        {
          "name": "",
          "type": "address"
        }
      ],
      "payable": false,
      "stateMutability": "view",
      "type": "function"
    },
    {
      "constant": false,
      "inputs": [
        {
          "name": "_newOwner",
          "type": "address"
        }
      ],
      "name": "transferOwnership",
      "outputs": [],
      "payable": false,
      "stateMutability": "nonpayable",
      "type": "function"
    },
    {
      "constant": true,
      "inputs": [],
      "name": "gasPrice",
      "outputs": [
        {
          "name": "",
          "type": "uint256"
        }
      ],
      "payable": false,
      "stateMutability": "view",
      "type": "function"
    },
    {
      "inputs": [
        {
          "name": "_gasPrice",
          "type": "uint256"
        }
      ],
      "payable": false,
      "stateMutability": "nonpayable",
      "type": "constructor"
    },
    {
      "anonymous": false,
      "inputs": [
        {
          "indexed": true,
          "name": "_prevOwner",
          "type": "address"
        },
        {
          "indexed": true,
          "name": "_newOwner",
          "type": "address"
        }
      ],
      "name": "OwnerUpdate",
      "type": "event"
    },
    {
      "constant": false,
      "inputs": [
        {
          "name": "_gasPrice",
          "type": "uint256"
        }
      ],
      "name": "setGasPrice",
      "outputs": [],
      "payable": false,
      "stateMutability": "nonpayable",
      "type": "function"
    },
    {
      "constant": true,
      "inputs": [
        {
          "name": "_gasPrice",
          "type": "uint256"
        }
      ],
      "name": "validateGasPrice",
      "outputs": [],
      "payable": false,
      "stateMutability": "view",
      "type": "function"
    }
  ],
  "bytecode": "0x6080604052600060025534801561001557600080fd5b5060405160208061066783398101806040528101908080519060200190929190505050336000806101000a81548173ffffffffffffffffffffffffffffffffffffffff021916908373ffffffffffffffffffffffffffffffffffffffff1602179055508060008111151561008857600080fd5b8160028190555050506105c7806100a06000396000f300608060405260043610610083576000357c0100000000000000000000000000000000000000000000000000000000900463ffffffff1680636b4dff1f1461008857806379ba5097146100b55780638da5cb5b146100cc578063bf1fe42014610123578063d4ee1d9014610150578063f2fde38b146101a7578063fe173b97146101ea575b600080fd5b34801561009457600080fd5b506100b360048036038101908080359060200190929190505050610215565b005b3480156100c157600080fd5b506100ca61023a565b005b3480156100d857600080fd5b506100e16103d9565b604051808273ffffffffffffffffffffffffffffffffffffffff1673ffffffffffffffffffffffffffffffffffffffff16815260200191505060405180910390f35b34801561012f57600080fd5b5061014e600480360381019080803590602001909291905050506103fe565b005b34801561015c57600080fd5b50610165610474565b604051808273ffffffffffffffffffffffffffffffffffffffff1673ffffffffffffffffffffffffffffffffffffffff16815260200191505060405180910390f35b3480156101b357600080fd5b506101e8600480360381019080803573ffffffffffffffffffffffffffffffffffffffff16906020019092919050505061049a565b005b3480156101f657600080fd5b506101ff610595565b6040518082815260200191505060405180910390f35b8060008111151561022557600080fd5b600254821115151561023657600080fd5b5050565b600160009054906101000a900473ffffffffffffffffffffffffffffffffffffffff1673ffffffffffffffffffffffffffffffffffffffff163373ffffffffffffffffffffffffffffffffffffffff1614151561029657600080fd5b600160009054906101000a900473ffffffffffffffffffffffffffffffffffffffff1673ffffffffffffffffffffffffffffffffffffffff166000809054906101000a900473ffffffffffffffffffffffffffffffffffffffff1673ffffffffffffffffffffffffffffffffffffffff167f343765429aea5a34b3ff6a3785a98a5abb2597aca87bfbb58632c173d585373a60405160405180910390a3600160009054906101000a900473ffffffffffffffffffffffffffffffffffffffff166000806101000a81548173ffffffffffffffffffffffffffffffffffffffff021916908373ffffffffffffffffffffffffffffffffffffffff1602179055506000600160006101000a81548173ffffffffffffffffffffffffffffffffffffffff021916908373ffffffffffffffffffffffffffffffffffffffff160217905550565b6000809054906101000a900473ffffffffffffffffffffffffffffffffffffffff1681565b6000809054906101000a900473ffffffffffffffffffffffffffffffffffffffff1673ffffffffffffffffffffffffffffffffffffffff163373ffffffffffffffffffffffffffffffffffffffff1614151561045957600080fd5b8060008111151561046957600080fd5b816002819055505050565b600160009054906101000a900473ffffffffffffffffffffffffffffffffffffffff1681565b6000809054906101000a900473ffffffffffffffffffffffffffffffffffffffff1673ffffffffffffffffffffffffffffffffffffffff163373ffffffffffffffffffffffffffffffffffffffff161415156104f557600080fd5b6000809054906101000a900473ffffffffffffffffffffffffffffffffffffffff1673ffffffffffffffffffffffffffffffffffffffff168173ffffffffffffffffffffffffffffffffffffffff161415151561055157600080fd5b80600160006101000a81548173ffffffffffffffffffffffffffffffffffffffff021916908373ffffffffffffffffffffffffffffffffffffffff16021790555050565b600254815600a165627a7a7230582031ad232ec2e4b90c965fe4ef80c848251867b22f94ee0616951b159e2f4dcf250029",
  "source": "pragma solidity ^0.4.24;\nimport './interfaces/IBancorGasPriceLimit.sol';\nimport '../utility/Owned.sol';\nimport '../utility/Utils.sol';\n\n/*\n    The BancorGasPriceLimit contract serves as an extra front-running attack mitigation mechanism.\n    It sets a maximum gas price on all bancor conversions, which prevents users from \"cutting in line\"\n    in order to front-run other transactions.\n    The gas price limit is universal to all converters and it can be updated by the owner to be in line\n    with the network's current gas price.\n*/\ncontract BancorGasPriceLimit is IBancorGasPriceLimit, Owned, Utils {\n    uint256 public gasPrice = 0 wei;    // maximum gas price for bancor transactions\n    \n    /**\n        @dev constructor\n\n        @param _gasPrice    gas price limit\n    */\n    constructor(uint256 _gasPrice)\n        public\n        greaterThanZero(_gasPrice)\n    {\n        gasPrice = _gasPrice;\n    }\n\n    /*\n        @dev allows the owner to update the gas price limit\n\n        @param _gasPrice    new gas price limit\n    */\n    function setGasPrice(uint256 _gasPrice)\n        public\n        ownerOnly\n        greaterThanZero(_gasPrice)\n    {\n        gasPrice = _gasPrice;\n    }\n\n    /*\n        @dev validate that the given gas price is equal to the current network gas price\n\n        @param _gasPrice    tested gas price\n    */\n    function validateGasPrice(uint256 _gasPrice)\n        public\n        view\n        greaterThanZero(_gasPrice)\n    {\n        require(_gasPrice <= gasPrice);\n    }\n}\n",
  "sourcePath": "/home/dog/code/kraken/MyBit-BancorConverter.tech/contracts/bancor/converter/BancorGasPriceLimit.sol",
  "compiler": {
    "name": "solc",
    "version": "0.4.25+commit.59dbf8f1.Emscripten.clang"
  },
  "schemaVersion": "3.0.0-beta.0",
  "updatedAt": "2018-12-12T09:14:33.135Z"
}