{
  "contractName": "FeatureIds",
  "abi": [
    {
      "constant": true,
      "inputs": [],
      "name": "CONVERTER_CONVERSION_WHITELIST",
      "outputs": [
        {
          "name": "",
          "type": "uint256"
        }
      ],
      "payable": false,
      "stateMutability": "view",
      "type": "function"
    }
  ],
  "bytecode": "0x6080604052348015600f57600080fd5b50609d8061001e6000396000f300608060405260043610603f576000357c0100000000000000000000000000000000000000000000000000000000900463ffffffff16806392d1abb7146044575b600080fd5b348015604f57600080fd5b506056606c565b6040518082815260200191505060405180910390f35b6001815600a165627a7a723058201491b6da0091a1facf50e3b164da12597d56ad4ea073a7f92b3d23614d3e817a0029",
  "source": "pragma solidity ^0.4.24;\n\n/**\n    Id definitions for bancor contract features\n\n    Can be used to query the ContractFeatures contract to check whether a certain feature is supported by a contract\n*/\ncontract FeatureIds {\n    // converter features\n    uint256 public constant CONVERTER_CONVERSION_WHITELIST = 1 << 0;\n}\n",
  "sourcePath": "/home/dog/code/kraken/MyBit-BancorConverter.tech/contracts/bancor/FeatureIds.sol",
  "compiler": {
    "name": "solc",
    "version": "0.4.25+commit.59dbf8f1.Emscripten.clang"
  },
  "schemaVersion": "3.0.0-beta.0",
  "updatedAt": "2018-12-12T09:14:33.124Z"
}