{
  "contractName": "TestUtils",
  "abi": [
    {
      "inputs": [],
      "payable": false,
      "stateMutability": "nonpayable",
      "type": "constructor"
    },
    {
      "constant": true,
      "inputs": [
        {
          "name": "_x",
          "type": "uint256"
        },
        {
          "name": "_y",
          "type": "uint256"
        }
      ],
      "name": "testSafeAdd",
      "outputs": [
        {
          "name": "",
          "type": "uint256"
        }
      ],
      "payable": false,
      "stateMutability": "pure",
      "type": "function"
    },
    {
      "constant": true,
      "inputs": [
        {
          "name": "_x",
          "type": "uint256"
        },
        {
          "name": "_y",
          "type": "uint256"
        }
      ],
      "name": "testSafeSub",
      "outputs": [
        {
          "name": "",
          "type": "uint256"
        }
      ],
      "payable": false,
      "stateMutability": "pure",
      "type": "function"
    },
    {
      "constant": true,
      "inputs": [
        {
          "name": "_x",
          "type": "uint256"
        },
        {
          "name": "_y",
          "type": "uint256"
        }
      ],
      "name": "testSafeMul",
      "outputs": [
        {
          "name": "",
          "type": "uint256"
        }
      ],
      "payable": false,
      "stateMutability": "pure",
      "type": "function"
    }
  ],
  "bytecode": "0x608060405234801561001057600080fd5b5061020f806100206000396000f300608060405260043610610057576000357c0100000000000000000000000000000000000000000000000000000000900463ffffffff1680639ee6ff701461005c578063de47864c146100a7578063ec0da330146100f2575b600080fd5b34801561006857600080fd5b50610091600480360381019080803590602001909291908035906020019092919050505061013d565b6040518082815260200191505060405180910390f35b3480156100b357600080fd5b506100dc6004803603810190808035906020019092919080359060200190929190505050610151565b6040518082815260200191505060405180910390f35b3480156100fe57600080fd5b506101276004803603810190808035906020019092919080359060200190929190505050610165565b6040518082815260200191505060405180910390f35b60006101498383610179565b905092915050565b600061015d83836101ac565b905092915050565b600061017183836101ca565b905092915050565b6000808284029050600084148061019a575082848281151561019757fe5b04145b15156101a257fe5b8091505092915050565b60008082840190508381101515156101c057fe5b8091505092915050565b60008183101515156101d857fe5b8183039050929150505600a165627a7a72305820f2c638b4424626516231f79e333149d29e875ed0c9993e9f216cea58d52826c30029",
  "source": "pragma solidity ^0.4.24;\nimport '../utility/Utils.sol';\n\n/*\n    Utils test helper that exposes the safe math functions\n*/\ncontract TestUtils is Utils {\n    constructor() public {\n    }\n\n    function testSafeAdd(uint256 _x, uint256 _y) public pure returns (uint256) {\n        return super.safeAdd(_x, _y);\n    }\n\n    function testSafeSub(uint256 _x, uint256 _y) public pure returns (uint256) {\n        return super.safeSub(_x, _y);\n    }\n\n    function testSafeMul(uint256 _x, uint256 _y) public pure returns (uint256) {\n        return super.safeMul(_x, _y);\n    }\n}\n",
  "sourcePath": "/home/dog/code/kraken/MyBit-BancorConverter.tech/contracts/bancor/helpers/TestUtils.sol",
  "compiler": {
    "name": "solc",
    "version": "0.4.25+commit.59dbf8f1.Emscripten.clang"
  },
  "schemaVersion": "3.0.0-beta.0",
  "updatedAt": "2018-12-12T09:14:33.131Z"
}