{
  "contractName": "TokenConverter",
  "abi": [
    {
      "inputs": [
        {
          "name": "_token",
          "type": "address"
        },
        {
          "name": "_bancorNetwork",
          "type": "address"
        }
      ],
      "payable": false,
      "stateMutability": "nonpayable",
      "type": "constructor"
    },
    {
      "constant": false,
      "inputs": [
        {
          "name": "_token",
          "type": "address"
        },
        {
          "name": "_amount",
          "type": "uint256"
        },
        {
          "name": "_minimumReturn",
          "type": "uint256"
        }
      ],
      "name": "convertTokenToMyBit",
      "outputs": [],
      "payable": true,
      "stateMutability": "payable",
      "type": "function"
    },
    {
      "constant": false,
      "inputs": [
        {
          "name": "token",
          "type": "address"
        },
        {
          "name": "_newPath",
          "type": "address[]"
        }
      ],
      "name": "addPath",
      "outputs": [
        {
          "name": "",
          "type": "bool"
        }
      ],
      "payable": false,
      "stateMutability": "nonpayable",
      "type": "function"
    }
  ],
  "bytecode": "0x608060405234801561001057600080fd5b50604051604080610cb08339810180604052810190808051906020019092919080519060200190929190505050816000806101000a81548173ffffffffffffffffffffffffffffffffffffffff021916908373ffffffffffffffffffffffffffffffffffffffff16021790555033600360006101000a81548173ffffffffffffffffffffffffffffffffffffffff021916908373ffffffffffffffffffffffffffffffffffffffff16021790555080600160006101000a81548173ffffffffffffffffffffffffffffffffffffffff021916908373ffffffffffffffffffffffffffffffffffffffff1602179055505050610ba0806101106000396000f30060806040526004361061004c576000357c0100000000000000000000000000000000000000000000000000000000900463ffffffff1680631f0a3da614610051578063b1b20d271461009b575b600080fd5b610099600480360381019080803573ffffffffffffffffffffffffffffffffffffffff1690602001909291908035906020019092919080359060200190929190505050610139565b005b3480156100a757600080fd5b5061011f600480360381019080803573ffffffffffffffffffffffffffffffffffffffff169060200190929190803590602001908201803590602001908080602002602001604051908101604052809392919081815260200183836020028082843782019150505050505091929192905050506109eb565b604051808215151515815260200191505060405180910390f35b6000806000341415610383578491508173ffffffffffffffffffffffffffffffffffffffff166323b872dd33600160009054906101000a900473ffffffffffffffffffffffffffffffffffffffff16876040518463ffffffff167c0100000000000000000000000000000000000000000000000000000000028152600401808473ffffffffffffffffffffffffffffffffffffffff1673ffffffffffffffffffffffffffffffffffffffff1681526020018373ffffffffffffffffffffffffffffffffffffffff1673ffffffffffffffffffffffffffffffffffffffff1681526020018281526020019350505050602060405180830381600087803b15801561024157600080fd5b505af1158015610255573d6000803e3d6000fd5b505050506040513d602081101561026b57600080fd5b8101908080519060200190929190505050508173ffffffffffffffffffffffffffffffffffffffff1663095ea7b3600160009054906101000a900473ffffffffffffffffffffffffffffffffffffffff16866040518363ffffffff167c0100000000000000000000000000000000000000000000000000000000028152600401808373ffffffffffffffffffffffffffffffffffffffff1673ffffffffffffffffffffffffffffffffffffffff16815260200182815260200192505050602060405180830381600087803b15801561034257600080fd5b505af1158015610356573d6000803e3d6000fd5b505050506040513d602081101561036c57600080fd5b810190808051906020019092919050505050610395565b348414151561039157600080fd5b8491505b600160009054906101000a900473ffffffffffffffffffffffffffffffffffffffff1673ffffffffffffffffffffffffffffffffffffffff1663f3898a97600260008573ffffffffffffffffffffffffffffffffffffffff1673ffffffffffffffffffffffffffffffffffffffff16815260200190815260200160002086866040518463ffffffff167c0100000000000000000000000000000000000000000000000000000000028152600401808060200184815260200183815260200182810382528581815481526020019150805480156104c657602002820191906000526020600020905b8160009054906101000a900473ffffffffffffffffffffffffffffffffffffffff1673ffffffffffffffffffffffffffffffffffffffff168152602001906001019080831161047c575b5050945050505050602060405180830381600087803b1580156104e857600080fd5b505af11580156104fc573d6000803e3d6000fd5b505050506040513d602081101561051257600080fd5b8101908080519060200190929190505050905082811015151561059d576040517f08c379a00000000000000000000000000000000000000000000000000000000081526004018080602001828103825260138152602001807f5472616e73616374696f6e206661696c65642e0000000000000000000000000081525060200191505060405180910390fd5b806000809054906101000a900473ffffffffffffffffffffffffffffffffffffffff1673ffffffffffffffffffffffffffffffffffffffff166370a08231306040518263ffffffff167c0100000000000000000000000000000000000000000000000000000000028152600401808273ffffffffffffffffffffffffffffffffffffffff1673ffffffffffffffffffffffffffffffffffffffff168152602001915050602060405180830381600087803b15801561065a57600080fd5b505af115801561066e573d6000803e3d6000fd5b505050506040513d602081101561068457600080fd5b8101908080519060200190929190505050141515610730576040517f08c379a00000000000000000000000000000000000000000000000000000000081526004018080602001828103825260368152602001807f5472616e73616374696f6e206661696c6564207769746820646966666572656e81526020017f742072657475726e207468616e2065787065637465640000000000000000000081525060400191505060405180910390fd5b6000809054906101000a900473ffffffffffffffffffffffffffffffffffffffff1673ffffffffffffffffffffffffffffffffffffffff1663a9059cbb33836040518363ffffffff167c0100000000000000000000000000000000000000000000000000000000028152600401808373ffffffffffffffffffffffffffffffffffffffff1673ffffffffffffffffffffffffffffffffffffffff16815260200182815260200192505050602060405180830381600087803b1580156107f457600080fd5b505af1158015610808573d6000803e3d6000fd5b505050506040513d602081101561081e57600080fd5b8101908080519060200190929190505050508173ffffffffffffffffffffffffffffffffffffffff1663a9059cbb338473ffffffffffffffffffffffffffffffffffffffff166370a08231306040518263ffffffff167c0100000000000000000000000000000000000000000000000000000000028152600401808273ffffffffffffffffffffffffffffffffffffffff1673ffffffffffffffffffffffffffffffffffffffff168152602001915050602060405180830381600087803b1580156108e857600080fd5b505af11580156108fc573d6000803e3d6000fd5b505050506040513d602081101561091257600080fd5b81019080805190602001909291905050506040518363ffffffff167c0100000000000000000000000000000000000000000000000000000000028152600401808373ffffffffffffffffffffffffffffffffffffffff1673ffffffffffffffffffffffffffffffffffffffff16815260200182815260200192505050602060405180830381600087803b1580156109a857600080fd5b505af11580156109bc573d6000803e3d6000fd5b505050506040513d60208110156109d257600080fd5b8101908080519060200190929190505050505050505050565b60003373ffffffffffffffffffffffffffffffffffffffff16600360009054906101000a900473ffffffffffffffffffffffffffffffffffffffff1673ffffffffffffffffffffffffffffffffffffffff16141515610a4957600080fd5b81600260008573ffffffffffffffffffffffffffffffffffffffff1673ffffffffffffffffffffffffffffffffffffffff1681526020019081526020016000209080519060200190610a9c929190610aa7565b506001905092915050565b828054828255906000526020600020908101928215610b20579160200282015b82811115610b1f5782518260006101000a81548173ffffffffffffffffffffffffffffffffffffffff021916908373ffffffffffffffffffffffffffffffffffffffff16021790555091602001919060010190610ac7565b5b509050610b2d9190610b31565b5090565b610b7191905b80821115610b6d57600081816101000a81549073ffffffffffffffffffffffffffffffffffffffff021916905550600101610b37565b5090565b905600a165627a7a723058203c1b6e3e7a16be687e467011323a9460032197d69d6831d5dc7ed41de43997e10029",
  "source": "pragma solidity ^0.4.24;\n\nimport \"./bancor/IBancorNetwork.sol\";\nimport \"./bancor/token/EtherToken.sol\";\nimport \"./bancor/token/interfaces/IERC20Token.sol\";\nimport \"./bancor/token/interfaces/ISmartToken.sol\";\nimport \"./bancor/token/interfaces/IEtherToken.sol\";\nimport \"./bancor/token/SmartToken.sol\";\n\n\n\n\n\n///@title A contract for converting any token into MYB (using Bancor's API)\n///@author Vlad Silviu Farcas\ncontract TokenConverter {\n    //DBInterface private database;\n    IERC20Token private myBitToken;\n    IBancorNetwork private bancorNetwork;\n    mapping(address => IERC20Token[]) private path;\n\n    address owner;\n\n    ///@notice initialise addresses needed for conversion\n    constructor(IERC20Token _token, IBancorNetwork _bancorNetwork) public{\n      //database = DBInterface(_database);\n      myBitToken = _token;\n      owner = msg.sender;\n      bancorNetwork = _bancorNetwork;\n    }\n\n    ///@notice convert some tokens\n    ///@param _token the contract of the token that is about to be converted\n    ///@param _amount the amount of _token that is about to be converted\n    ///@param _minimumReturn the minimum return of MyBit token that is about to be received\n    function convertTokenToMyBit(address _token, uint _amount, uint _minimumReturn)\n    external\n    payable {\n      IERC20Token token;\n      if (msg.value == 0){\n          // require(bancorNetwork.etherTokens(_token) == true, \"Token not supported\");\n          token = ISmartToken(_token);\n          token.transferFrom(msg.sender, bancorNetwork, _amount);\n          token.approve(bancorNetwork, _amount);\n      } else {\n          require(_amount == msg.value);\n          token = IEtherToken(_token);\n      }\n      uint convertedValue = IBancorNetwork(bancorNetwork).convert(\n          path[address(token)],\n          _amount,\n          _minimumReturn\n      );\n      require (convertedValue >= _minimumReturn, \"Transaction failed.\");\n      require (myBitToken.balanceOf(this) == convertedValue, \"Transaction failed with different return than expected\");\n      myBitToken.transfer(msg.sender, convertedValue);\n      token.transfer(msg.sender, token.balanceOf(this));\n    }\n\n    function addPath(address token, IERC20Token[] _newPath)\n    public\n    onlyOwner\n    returns (bool){\n      path[token] = _newPath;\n      return true;\n    }\n\n    modifier onlyOwner {\n      //require(database.boolStorage(keccak256(abi.encodePacked(\"owner\", msg.sender))));\n      require(owner == msg.sender);\n      _;\n    }\n\n}\n",
  "sourcePath": "/home/dog/code/kraken/MyBit-BancorConverter.tech/contracts/TokenConverter.sol",
  "compiler": {
    "name": "solc",
    "version": "0.4.25+commit.59dbf8f1.Emscripten.clang"
  },
  "schemaVersion": "3.0.0-beta.0",
  "updatedAt": "2018-12-12T09:14:33.157Z"
}